{
  "_format": "hh-sol-artifact-1",
  "contractName": "NFT",
  "sourceName": "src/backend/contracts/NFT.sol",
  "abi": [
    {
      "inputs": [
        {
          "internalType": "address",
          "name": "ownerAddress",
          "type": "address"
        },
        {
          "internalType": "address[]",
          "name": "_usersToWhitelist",
          "type": "address[]"
        }
      ],
      "stateMutability": "nonpayable",
      "type": "constructor"
    },
    {
      "inputs": [],
      "name": "ApprovalCallerNotOwnerNorApproved",
      "type": "error"
    },
    {
      "inputs": [],
      "name": "ApprovalQueryForNonexistentToken",
      "type": "error"
    },
    {
      "inputs": [],
      "name": "ApproveToCaller",
      "type": "error"
    },
    {
      "inputs": [],
      "name": "BalanceQueryForZeroAddress",
      "type": "error"
    },
    {
      "inputs": [],
      "name": "MintERC2309QuantityExceedsLimit",
      "type": "error"
    },
    {
      "inputs": [],
      "name": "MintToZeroAddress",
      "type": "error"
    },
    {
      "inputs": [],
      "name": "MintZeroQuantity",
      "type": "error"
    },
    {
      "inputs": [],
      "name": "OwnerQueryForNonexistentToken",
      "type": "error"
    },
    {
      "inputs": [],
      "name": "OwnershipNotInitializedForExtraData",
      "type": "error"
    },
    {
      "inputs": [],
      "name": "TransferCallerNotOwnerNorApproved",
      "type": "error"
    },
    {
      "inputs": [],
      "name": "TransferFromIncorrectOwner",
      "type": "error"
    },
    {
      "inputs": [],
      "name": "TransferToNonERC721ReceiverImplementer",
      "type": "error"
    },
    {
      "inputs": [],
      "name": "TransferToZeroAddress",
      "type": "error"
    },
    {
      "inputs": [],
      "name": "URIQueryForNonexistentToken",
      "type": "error"
    },
    {
      "anonymous": false,
      "inputs": [
        {
          "indexed": true,
          "internalType": "address",
          "name": "owner",
          "type": "address"
        },
        {
          "indexed": true,
          "internalType": "address",
          "name": "approved",
          "type": "address"
        },
        {
          "indexed": true,
          "internalType": "uint256",
          "name": "tokenId",
          "type": "uint256"
        }
      ],
      "name": "Approval",
      "type": "event"
    },
    {
      "anonymous": false,
      "inputs": [
        {
          "indexed": true,
          "internalType": "address",
          "name": "owner",
          "type": "address"
        },
        {
          "indexed": true,
          "internalType": "address",
          "name": "operator",
          "type": "address"
        },
        {
          "indexed": false,
          "internalType": "bool",
          "name": "approved",
          "type": "bool"
        }
      ],
      "name": "ApprovalForAll",
      "type": "event"
    },
    {
      "anonymous": false,
      "inputs": [
        {
          "indexed": true,
          "internalType": "uint256",
          "name": "fromTokenId",
          "type": "uint256"
        },
        {
          "indexed": false,
          "internalType": "uint256",
          "name": "toTokenId",
          "type": "uint256"
        },
        {
          "indexed": true,
          "internalType": "address",
          "name": "from",
          "type": "address"
        },
        {
          "indexed": true,
          "internalType": "address",
          "name": "to",
          "type": "address"
        }
      ],
      "name": "ConsecutiveTransfer",
      "type": "event"
    },
    {
      "anonymous": false,
      "inputs": [
        {
          "indexed": false,
          "internalType": "address",
          "name": "user",
          "type": "address"
        }
      ],
      "name": "MintSuccessful",
      "type": "event"
    },
    {
      "anonymous": false,
      "inputs": [
        {
          "indexed": true,
          "internalType": "address",
          "name": "previousOwner",
          "type": "address"
        },
        {
          "indexed": true,
          "internalType": "address",
          "name": "newOwner",
          "type": "address"
        }
      ],
      "name": "OwnershipTransferred",
      "type": "event"
    },
    {
      "anonymous": false,
      "inputs": [
        {
          "indexed": true,
          "internalType": "address",
          "name": "from",
          "type": "address"
        },
        {
          "indexed": true,
          "internalType": "address",
          "name": "to",
          "type": "address"
        },
        {
          "indexed": true,
          "internalType": "uint256",
          "name": "tokenId",
          "type": "uint256"
        }
      ],
      "name": "Transfer",
      "type": "event"
    },
    {
      "inputs": [],
      "name": "amountMintPerAccount",
      "outputs": [
        {
          "internalType": "uint256",
          "name": "",
          "type": "uint256"
        }
      ],
      "stateMutability": "view",
      "type": "function"
    },
    {
      "inputs": [
        {
          "internalType": "address",
          "name": "to",
          "type": "address"
        },
        {
          "internalType": "uint256",
          "name": "tokenId",
          "type": "uint256"
        }
      ],
      "name": "approve",
      "outputs": [],
      "stateMutability": "nonpayable",
      "type": "function"
    },
    {
      "inputs": [
        {
          "internalType": "address",
          "name": "owner",
          "type": "address"
        }
      ],
      "name": "balanceOf",
      "outputs": [
        {
          "internalType": "uint256",
          "name": "",
          "type": "uint256"
        }
      ],
      "stateMutability": "view",
      "type": "function"
    },
    {
      "inputs": [],
      "name": "baseTokenURI",
      "outputs": [
        {
          "internalType": "string",
          "name": "",
          "type": "string"
        }
      ],
      "stateMutability": "pure",
      "type": "function"
    },
    {
      "inputs": [],
      "name": "contractURI",
      "outputs": [
        {
          "internalType": "string",
          "name": "",
          "type": "string"
        }
      ],
      "stateMutability": "pure",
      "type": "function"
    },
    {
      "inputs": [
        {
          "internalType": "uint256",
          "name": "tokenId",
          "type": "uint256"
        }
      ],
      "name": "getApproved",
      "outputs": [
        {
          "internalType": "address",
          "name": "",
          "type": "address"
        }
      ],
      "stateMutability": "view",
      "type": "function"
    },
    {
      "inputs": [],
      "name": "getPrice",
      "outputs": [
        {
          "internalType": "uint256",
          "name": "",
          "type": "uint256"
        }
      ],
      "stateMutability": "view",
      "type": "function"
    },
    {
      "inputs": [
        {
          "internalType": "address",
          "name": "owner",
          "type": "address"
        },
        {
          "internalType": "address",
          "name": "operator",
          "type": "address"
        }
      ],
      "name": "isApprovedForAll",
      "outputs": [
        {
          "internalType": "bool",
          "name": "",
          "type": "bool"
        }
      ],
      "stateMutability": "view",
      "type": "function"
    },
    {
      "inputs": [],
      "name": "isRevealed",
      "outputs": [
        {
          "internalType": "bool",
          "name": "",
          "type": "bool"
        }
      ],
      "stateMutability": "view",
      "type": "function"
    },
    {
      "inputs": [
        {
          "internalType": "address",
          "name": "_user",
          "type": "address"
        }
      ],
      "name": "isWhitelisted",
      "outputs": [
        {
          "internalType": "bool",
          "name": "",
          "type": "bool"
        }
      ],
      "stateMutability": "view",
      "type": "function"
    },
    {
      "inputs": [],
      "name": "max_supply",
      "outputs": [
        {
          "internalType": "uint256",
          "name": "",
          "type": "uint256"
        }
      ],
      "stateMutability": "view",
      "type": "function"
    },
    {
      "inputs": [
        {
          "internalType": "uint256",
          "name": "quantity",
          "type": "uint256"
        }
      ],
      "name": "mint",
      "outputs": [],
      "stateMutability": "payable",
      "type": "function"
    },
    {
      "inputs": [],
      "name": "name",
      "outputs": [
        {
          "internalType": "string",
          "name": "",
          "type": "string"
        }
      ],
      "stateMutability": "view",
      "type": "function"
    },
    {
      "inputs": [],
      "name": "owner",
      "outputs": [
        {
          "internalType": "address",
          "name": "",
          "type": "address"
        }
      ],
      "stateMutability": "view",
      "type": "function"
    },
    {
      "inputs": [
        {
          "internalType": "uint256",
          "name": "tokenId",
          "type": "uint256"
        }
      ],
      "name": "ownerOf",
      "outputs": [
        {
          "internalType": "address",
          "name": "",
          "type": "address"
        }
      ],
      "stateMutability": "view",
      "type": "function"
    },
    {
      "inputs": [],
      "name": "paused",
      "outputs": [
        {
          "internalType": "bool",
          "name": "",
          "type": "bool"
        }
      ],
      "stateMutability": "view",
      "type": "function"
    },
    {
      "inputs": [],
      "name": "publicSaleEnabled",
      "outputs": [
        {
          "internalType": "bool",
          "name": "",
          "type": "bool"
        }
      ],
      "stateMutability": "view",
      "type": "function"
    },
    {
      "inputs": [],
      "name": "publicSalePrice",
      "outputs": [
        {
          "internalType": "uint256",
          "name": "",
          "type": "uint256"
        }
      ],
      "stateMutability": "view",
      "type": "function"
    },
    {
      "inputs": [],
      "name": "renounceOwnership",
      "outputs": [],
      "stateMutability": "nonpayable",
      "type": "function"
    },
    {
      "inputs": [],
      "name": "reveal",
      "outputs": [],
      "stateMutability": "nonpayable",
      "type": "function"
    },
    {
      "inputs": [
        {
          "internalType": "address",
          "name": "from",
          "type": "address"
        },
        {
          "internalType": "address",
          "name": "to",
          "type": "address"
        },
        {
          "internalType": "uint256",
          "name": "tokenId",
          "type": "uint256"
        }
      ],
      "name": "safeTransferFrom",
      "outputs": [],
      "stateMutability": "nonpayable",
      "type": "function"
    },
    {
      "inputs": [
        {
          "internalType": "address",
          "name": "from",
          "type": "address"
        },
        {
          "internalType": "address",
          "name": "to",
          "type": "address"
        },
        {
          "internalType": "uint256",
          "name": "tokenId",
          "type": "uint256"
        },
        {
          "internalType": "bytes",
          "name": "_data",
          "type": "bytes"
        }
      ],
      "name": "safeTransferFrom",
      "outputs": [],
      "stateMutability": "nonpayable",
      "type": "function"
    },
    {
      "inputs": [
        {
          "internalType": "uint256",
          "name": "_amountMintPerAccount",
          "type": "uint256"
        }
      ],
      "name": "setAmountMintPerAccount",
      "outputs": [],
      "stateMutability": "nonpayable",
      "type": "function"
    },
    {
      "inputs": [
        {
          "internalType": "address",
          "name": "operator",
          "type": "address"
        },
        {
          "internalType": "bool",
          "name": "approved",
          "type": "bool"
        }
      ],
      "name": "setApprovalForAll",
      "outputs": [],
      "stateMutability": "nonpayable",
      "type": "function"
    },
    {
      "inputs": [
        {
          "internalType": "bool",
          "name": "_state",
          "type": "bool"
        }
      ],
      "name": "setPause",
      "outputs": [],
      "stateMutability": "nonpayable",
      "type": "function"
    },
    {
      "inputs": [
        {
          "internalType": "bool",
          "name": "_state",
          "type": "bool"
        }
      ],
      "name": "setPublicSaleEnabled",
      "outputs": [],
      "stateMutability": "nonpayable",
      "type": "function"
    },
    {
      "inputs": [
        {
          "internalType": "uint256",
          "name": "_price",
          "type": "uint256"
        }
      ],
      "name": "setPublicSalePrice",
      "outputs": [],
      "stateMutability": "nonpayable",
      "type": "function"
    },
    {
      "inputs": [
        {
          "internalType": "uint256",
          "name": "_price",
          "type": "uint256"
        }
      ],
      "name": "setWhitelistPrice",
      "outputs": [],
      "stateMutability": "nonpayable",
      "type": "function"
    },
    {
      "inputs": [
        {
          "internalType": "bytes4",
          "name": "interfaceId",
          "type": "bytes4"
        }
      ],
      "name": "supportsInterface",
      "outputs": [
        {
          "internalType": "bool",
          "name": "",
          "type": "bool"
        }
      ],
      "stateMutability": "view",
      "type": "function"
    },
    {
      "inputs": [],
      "name": "symbol",
      "outputs": [
        {
          "internalType": "string",
          "name": "",
          "type": "string"
        }
      ],
      "stateMutability": "view",
      "type": "function"
    },
    {
      "inputs": [
        {
          "internalType": "uint256",
          "name": "_tokenId",
          "type": "uint256"
        }
      ],
      "name": "tokenURI",
      "outputs": [
        {
          "internalType": "string",
          "name": "",
          "type": "string"
        }
      ],
      "stateMutability": "view",
      "type": "function"
    },
    {
      "inputs": [],
      "name": "totalSupply",
      "outputs": [
        {
          "internalType": "uint256",
          "name": "",
          "type": "uint256"
        }
      ],
      "stateMutability": "view",
      "type": "function"
    },
    {
      "inputs": [
        {
          "internalType": "address",
          "name": "from",
          "type": "address"
        },
        {
          "internalType": "address",
          "name": "to",
          "type": "address"
        },
        {
          "internalType": "uint256",
          "name": "tokenId",
          "type": "uint256"
        }
      ],
      "name": "transferFrom",
      "outputs": [],
      "stateMutability": "nonpayable",
      "type": "function"
    },
    {
      "inputs": [
        {
          "internalType": "address",
          "name": "newOwner",
          "type": "address"
        }
      ],
      "name": "transferOwnership",
      "outputs": [],
      "stateMutability": "nonpayable",
      "type": "function"
    },
    {
      "inputs": [],
      "name": "uriSuffix",
      "outputs": [
        {
          "internalType": "string",
          "name": "",
          "type": "string"
        }
      ],
      "stateMutability": "view",
      "type": "function"
    },
    {
      "inputs": [],
      "name": "whitelistPrice",
      "outputs": [
        {
          "internalType": "uint256",
          "name": "",
          "type": "uint256"
        }
      ],
      "stateMutability": "view",
      "type": "function"
    },
    {
      "inputs": [
        {
          "internalType": "address[]",
          "name": "_users",
          "type": "address[]"
        }
      ],
      "name": "whitelistUsers",
      "outputs": [],
      "stateMutability": "nonpayable",
      "type": "function"
    },
    {
      "inputs": [],
      "name": "withdraw",
      "outputs": [],
      "stateMutability": "nonpayable",
      "type": "function"
    }
  ],
  "bytecode": "0x60a0604052613a98608090815250600a60095568118da0b06f1f7c0000600c55680ae145a2a554e60000600d553480156200003957600080fd5b50604051620039033803806200390383398181016040528101906200005f919062000469565b6040518060400160405280600d81526020017f7465656e79536b79534a424273000000000000000000000000000000000000008152506040518060400160405280600781526020017f5453534a424253000000000000000000000000000000000000000000000000008152508160029080519060200190620000e39291906200024e565b508060039080519060200190620000fc9291906200024e565b506200010d6200017760201b60201c565b600081905550505062000135620001296200018060201b60201c565b6200018860201b60201c565b600a6000620001459190620002df565b80600a90805190602001906200015d92919062000302565b506200016f826200018860201b60201c565b505062000644565b60006001905090565b600033905090565b6000600860009054906101000a900473ffffffffffffffffffffffffffffffffffffffff16905081600860006101000a81548173ffffffffffffffffffffffffffffffffffffffff021916908373ffffffffffffffffffffffffffffffffffffffff1602179055508173ffffffffffffffffffffffffffffffffffffffff168173ffffffffffffffffffffffffffffffffffffffff167f8be0079c531659141344cd1fd0a4f28419497f9722a3daafe3b4186f6b6457e060405160405180910390a35050565b8280546200025c906200054f565b90600052602060002090601f016020900481019282620002805760008555620002cc565b82601f106200029b57805160ff1916838001178555620002cc565b82800160010185558215620002cc579182015b82811115620002cb578251825591602001919060010190620002ae565b5b509050620002db919062000391565b5090565b5080546000825590600052602060002090810190620002ff919062000391565b50565b8280548282559060005260206000209081019282156200037e579160200282015b828111156200037d5782518260006101000a81548173ffffffffffffffffffffffffffffffffffffffff021916908373ffffffffffffffffffffffffffffffffffffffff1602179055509160200191906001019062000323565b5b5090506200038d919062000391565b5090565b5b80821115620003ac57600081600090555060010162000392565b5090565b6000620003c7620003c184620004ec565b620004c3565b90508083825260208201905082856020860282011115620003e757600080fd5b60005b858110156200041b578162000400888262000425565b845260208401935060208301925050600181019050620003ea565b5050509392505050565b60008151905062000436816200062a565b92915050565b600082601f8301126200044e57600080fd5b815162000460848260208601620003b0565b91505092915050565b600080604083850312156200047d57600080fd5b60006200048d8582860162000425565b925050602083015167ffffffffffffffff811115620004ab57600080fd5b620004b9858286016200043c565b9150509250929050565b6000620004cf620004e2565b9050620004dd828262000585565b919050565b6000604051905090565b600067ffffffffffffffff8211156200050a5762000509620005ea565b5b602082029050602081019050919050565b600062000528826200052f565b9050919050565b600073ffffffffffffffffffffffffffffffffffffffff82169050919050565b600060028204905060018216806200056857607f821691505b602082108114156200057f576200057e620005bb565b5b50919050565b620005908262000619565b810181811067ffffffffffffffff82111715620005b257620005b1620005ea565b5b80604052505050565b7f4e487b7100000000000000000000000000000000000000000000000000000000600052602260045260246000fd5b7f4e487b7100000000000000000000000000000000000000000000000000000000600052604160045260246000fd5b6000601f19601f8301169050919050565b62000635816200051b565b81146200064157600080fd5b50565b60805161329c62000667600039600081816111b90152611319015261329c6000f3fe6080604052600436106102255760003560e01c80638720fbef11610123578063a827b5ff116100ab578063e8a3d4851161006f578063e8a3d485146107c2578063e985e9c5146107ed578063edec5f271461082a578063f2fde38b14610853578063fc1a1c361461087c57610225565b8063a827b5ff146106dd578063b88d4fde14610708578063bedb86fb14610731578063c87b56dd1461075a578063d547cfb71461079757610225565b806398d5fdca116100f257806398d5fdca1461062b5780639b6860c814610656578063a0712d6814610681578063a22cb4651461069d578063a475b5dd146106c657610225565b80638720fbef146105815780638a333b50146105aa5780638da5cb5b146105d557806395d89b411461060057610225565b80633ccfd60b116101b15780636352211e116101755780636352211e1461049e57806370a08231146104db578063715018a614610518578063717d57d31461052f578063791a25191461055857610225565b80633ccfd60b146103dd57806342842e0e146103f457806354214f691461041d5780635503a0e8146104485780635c975abb1461047357610225565b806311296660116101f857806311296660146102f857806318160ddd1461032157806323b872dd1461034c5780632ab91bba146103755780633af32abf146103a057610225565b806301ffc9a71461022a57806306fdde0314610267578063081812fc14610292578063095ea7b3146102cf575b600080fd5b34801561023657600080fd5b50610251600480360381019061024c9190612800565b6108a7565b60405161025e9190612afb565b60405180910390f35b34801561027357600080fd5b5061027c610939565b6040516102899190612b16565b60405180910390f35b34801561029e57600080fd5b506102b960048036038101906102b49190612852565b6109cb565b6040516102c69190612a94565b60405180910390f35b3480156102db57600080fd5b506102f660048036038101906102f19190612756565b610a4a565b005b34801561030457600080fd5b5061031f600480360381019061031a9190612852565b610b8e565b005b34801561032d57600080fd5b50610336610ba0565b6040516103439190612c38565b60405180910390f35b34801561035857600080fd5b50610373600480360381019061036e9190612650565b610bb7565b005b34801561038157600080fd5b5061038a610edc565b6040516103979190612afb565b60405180910390f35b3480156103ac57600080fd5b506103c760048036038101906103c291906125eb565b610eef565b6040516103d49190612afb565b60405180910390f35b3480156103e957600080fd5b506103f2610fbf565b005b34801561040057600080fd5b5061041b60048036038101906104169190612650565b611010565b005b34801561042957600080fd5b50610432611030565b60405161043f9190612afb565b60405180910390f35b34801561045457600080fd5b5061045d611043565b60405161046a9190612b16565b60405180910390f35b34801561047f57600080fd5b5061048861107c565b6040516104959190612afb565b60405180910390f35b3480156104aa57600080fd5b506104c560048036038101906104c09190612852565b61108f565b6040516104d29190612a94565b60405180910390f35b3480156104e757600080fd5b5061050260048036038101906104fd91906125eb565b6110a1565b60405161050f9190612c38565b60405180910390f35b34801561052457600080fd5b5061052d61115a565b005b34801561053b57600080fd5b5061055660048036038101906105519190612852565b61116e565b005b34801561056457600080fd5b5061057f600480360381019061057a9190612852565b611180565b005b34801561058d57600080fd5b506105a860048036038101906105a391906127d7565b611192565b005b3480156105b657600080fd5b506105bf6111b7565b6040516105cc9190612c38565b60405180910390f35b3480156105e157600080fd5b506105ea6111db565b6040516105f79190612a94565b60405180910390f35b34801561060c57600080fd5b50610615611205565b6040516106229190612b16565b60405180910390f35b34801561063757600080fd5b50610640611297565b60405161064d9190612c38565b60405180910390f35b34801561066257600080fd5b5061066b6112c1565b6040516106789190612c38565b60405180910390f35b61069b60048036038101906106969190612852565b6112c7565b005b3480156106a957600080fd5b506106c460048036038101906106bf919061271a565b611500565b005b3480156106d257600080fd5b506106db611678565b005b3480156106e957600080fd5b506106f261169d565b6040516106ff9190612c38565b60405180910390f35b34801561071457600080fd5b5061072f600480360381019061072a919061269f565b6116a3565b005b34801561073d57600080fd5b50610758600480360381019061075391906127d7565b611716565b005b34801561076657600080fd5b50610781600480360381019061077c9190612852565b61173b565b60405161078e9190612b16565b60405180910390f35b3480156107a357600080fd5b506107ac611874565b6040516107b99190612b16565b60405180910390f35b3480156107ce57600080fd5b506107d7611883565b6040516107e49190612b16565b60405180910390f35b3480156107f957600080fd5b50610814600480360381019061080f9190612614565b6118a3565b6040516108219190612afb565b60405180910390f35b34801561083657600080fd5b50610851600480360381019061084c9190612792565b611937565b005b34801561085f57600080fd5b5061087a600480360381019061087591906125eb565b611963565b005b34801561088857600080fd5b506108916119e7565b60405161089e9190612c38565b60405180910390f35b60006301ffc9a760e01b827bffffffffffffffffffffffffffffffffffffffffffffffffffffffff1916148061090257506380ac58cd60e01b827bffffffffffffffffffffffffffffffffffffffffffffffffffffffff1916145b806109325750635b5e139f60e01b827bffffffffffffffffffffffffffffffffffffffffffffffffffffffff1916145b9050919050565b60606002805461094890612e52565b80601f016020809104026020016040519081016040528092919081815260200182805461097490612e52565b80156109c15780601f10610996576101008083540402835291602001916109c1565b820191906000526020600020905b8154815290600101906020018083116109a457829003601f168201915b5050505050905090565b60006109d6826119ed565b610a0c576040517fcf4700e400000000000000000000000000000000000000000000000000000000815260040160405180910390fd5b6006600083815260200190815260200160002060000160009054906101000a900473ffffffffffffffffffffffffffffffffffffffff169050919050565b6000610a558261108f565b90508073ffffffffffffffffffffffffffffffffffffffff16610a76611a4c565b73ffffffffffffffffffffffffffffffffffffffff1614610ad957610aa281610a9d611a4c565b6118a3565b610ad8576040517fcfb3b94200000000000000000000000000000000000000000000000000000000815260040160405180910390fd5b5b826006600084815260200190815260200160002060000160006101000a81548173ffffffffffffffffffffffffffffffffffffffff021916908373ffffffffffffffffffffffffffffffffffffffff160217905550818373ffffffffffffffffffffffffffffffffffffffff168273ffffffffffffffffffffffffffffffffffffffff167f8c5be1e5ebec7d5bd14f71427d1e84f3dd0314c0f7b2291e5b200ac8c7c3b92560405160405180910390a4505050565b610b96611a54565b8060098190555050565b6000610baa611ad2565b6001546000540303905090565b6000610bc282611adb565b90508373ffffffffffffffffffffffffffffffffffffffff168173ffffffffffffffffffffffffffffffffffffffff1614610c29576040517fa114810000000000000000000000000000000000000000000000000000000000815260040160405180910390fd5b600080610c3584611ba9565b91509150610c4b8187610c46611a4c565b611bd0565b610c9757610c6086610c5b611a4c565b6118a3565b610c96576040517f59c896be00000000000000000000000000000000000000000000000000000000815260040160405180910390fd5b5b600073ffffffffffffffffffffffffffffffffffffffff168573ffffffffffffffffffffffffffffffffffffffff161415610cfe576040517fea553b3400000000000000000000000000000000000000000000000000000000815260040160405180910390fd5b610d0b8686866001611c14565b8015610d1657600082555b600560008773ffffffffffffffffffffffffffffffffffffffff1673ffffffffffffffffffffffffffffffffffffffff168152602001908152602001600020600081546001900391905081905550600560008673ffffffffffffffffffffffffffffffffffffffff1673ffffffffffffffffffffffffffffffffffffffff1681526020019081526020016000206000815460010191905081905550610de485610dc0888887611c1a565b7c020000000000000000000000000000000000000000000000000000000017611c42565b600460008681526020019081526020016000208190555060007c020000000000000000000000000000000000000000000000000000000084161415610e6c576000600185019050600060046000838152602001908152602001600020541415610e6a576000548114610e69578360046000838152602001908152602001600020819055505b5b505b838573ffffffffffffffffffffffffffffffffffffffff168773ffffffffffffffffffffffffffffffffffffffff167fddf252ad1be2c89b69c2b068fc378daa952ba7f163c4a11628f55a4df523b3ef60405160405180910390a4610ed48686866001611c6d565b505050505050565b600b60009054906101000a900460ff1681565b600080600a80549050905060005b81811015610fb3578373ffffffffffffffffffffffffffffffffffffffff16600a8281548110610f56577f4e487b7100000000000000000000000000000000000000000000000000000000600052603260045260246000fd5b9060005260206000200160009054906101000a900473ffffffffffffffffffffffffffffffffffffffff1673ffffffffffffffffffffffffffffffffffffffff161415610fa857600192505050610fba565b806001019050610efd565b5060009150505b919050565b610fc7611a54565b3373ffffffffffffffffffffffffffffffffffffffff166108fc479081150290604051600060405180830381858888f1935050505015801561100d573d6000803e3d6000fd5b50565b61102b838383604051806020016040528060008152506116a3565b505050565b600b60019054906101000a900460ff1681565b6040518060400160405280600581526020017f2e6a736f6e00000000000000000000000000000000000000000000000000000081525081565b600b60029054906101000a900460ff1681565b600061109a82611adb565b9050919050565b60008073ffffffffffffffffffffffffffffffffffffffff168273ffffffffffffffffffffffffffffffffffffffff161415611109576040517f8f4eb60400000000000000000000000000000000000000000000000000000000815260040160405180910390fd5b67ffffffffffffffff600560008473ffffffffffffffffffffffffffffffffffffffff1673ffffffffffffffffffffffffffffffffffffffff16815260200190815260200160002054169050919050565b611162611a54565b61116c6000611c73565b565b611176611a54565b80600d8190555050565b611188611a54565b80600c8190555050565b61119a611a54565b80600b60006101000a81548160ff02191690831515021790555050565b7f000000000000000000000000000000000000000000000000000000000000000081565b6000600860009054906101000a900473ffffffffffffffffffffffffffffffffffffffff16905090565b60606003805461121490612e52565b80601f016020809104026020016040519081016040528092919081815260200182805461124090612e52565b801561128d5780601f106112625761010080835404028352916020019161128d565b820191906000526020600020905b81548152906001019060200180831161127057829003601f168201915b5050505050905090565b6000600b60009054906101000a900460ff16156112b857600c5490506112be565b600d5490505b90565b600c5481565b600b60029054906101000a900460ff1615611317576040517f08c379a000000000000000000000000000000000000000000000000000000000815260040161130e90612bd8565b60405180910390fd5b7f000000000000000000000000000000000000000000000000000000000000000081611341610ba0565b61134b9190612cec565b1061138b576040517f08c379a000000000000000000000000000000000000000000000000000000000815260040161138290612bf8565b60405180910390fd5b600b60009054906101000a900460ff16806113ab57506113aa33610eef565b5b6113ea576040517f08c379a00000000000000000000000000000000000000000000000000000000081526004016113e190612b58565b60405180910390fd5b600954816113f7336110a1565b6114019190612cec565b1115611442576040517f08c379a000000000000000000000000000000000000000000000000000000000815260040161143990612b98565b60405180910390fd5b8061144b611297565b6114559190612d42565b341015611497576040517f08c379a000000000000000000000000000000000000000000000000000000000815260040161148e90612c18565b60405180910390fd5b6001811180156114a75750600a81105b156114bc576001816114b99190612cec565b90505b6114c63382611d39565b7ff5535ccd9f40eb4bc73fac8710dbb2effbf3329da83f62b35d9aa88161bb85ca336040516114f59190612a94565b60405180910390a150565b611508611a4c565b73ffffffffffffffffffffffffffffffffffffffff168273ffffffffffffffffffffffffffffffffffffffff16141561156d576040517fb06307db00000000000000000000000000000000000000000000000000000000815260040160405180910390fd5b806007600061157a611a4c565b73ffffffffffffffffffffffffffffffffffffffff1673ffffffffffffffffffffffffffffffffffffffff16815260200190815260200160002060008473ffffffffffffffffffffffffffffffffffffffff1673ffffffffffffffffffffffffffffffffffffffff16815260200190815260200160002060006101000a81548160ff0219169083151502179055508173ffffffffffffffffffffffffffffffffffffffff16611627611a4c565b73ffffffffffffffffffffffffffffffffffffffff167f17307eab39ab6107e8899845ad3d59bd9653f200f220920489ca2b5937696c318360405161166c9190612afb565b60405180910390a35050565b611680611a54565b6001600b60016101000a81548160ff021916908315150217905550565b60095481565b6116ae848484610bb7565b60008373ffffffffffffffffffffffffffffffffffffffff163b14611710576116d984848484611ef6565b61170f576040517fd1a57ed600000000000000000000000000000000000000000000000000000000815260040160405180910390fd5b5b50505050565b61171e611a54565b80600b60026101000a81548160ff02191690831515021790555050565b6060611746826119ed565b611785576040517f08c379a000000000000000000000000000000000000000000000000000000000815260040161177c90612bb8565b60405180910390fd5b600b60019054906101000a900460ff166117b95760405180606001604052806035815260200161323260359139905061186f565b60006117c3612056565b90506127108311156117eb576040518060600160405280603681526020016131906036913990505b6000815111611809576040518060200160405280600081525061186b565b8061181384612076565b6040518060400160405280600581526020017f2e6a736f6e00000000000000000000000000000000000000000000000000000081525060405160200161185b93929190612a63565b6040516020818303038152906040525b9150505b919050565b606061187e612056565b905090565b60606040518060600160405280603681526020016131fc60369139905090565b6000600760008473ffffffffffffffffffffffffffffffffffffffff1673ffffffffffffffffffffffffffffffffffffffff16815260200190815260200160002060008373ffffffffffffffffffffffffffffffffffffffff1673ffffffffffffffffffffffffffffffffffffffff16815260200190815260200160002060009054906101000a900460ff16905092915050565b61193f611a54565b600a600061194d91906123f2565b8181600a919061195e929190612413565b505050565b61196b611a54565b600073ffffffffffffffffffffffffffffffffffffffff168173ffffffffffffffffffffffffffffffffffffffff1614156119db576040517f08c379a00000000000000000000000000000000000000000000000000000000081526004016119d290612b38565b60405180910390fd5b6119e481611c73565b50565b600d5481565b6000816119f8611ad2565b11158015611a07575060005482105b8015611a45575060007c0100000000000000000000000000000000000000000000000000000000600460008581526020019081526020016000205416145b9050919050565b600033905090565b611a5c61219a565b73ffffffffffffffffffffffffffffffffffffffff16611a7a6111db565b73ffffffffffffffffffffffffffffffffffffffff1614611ad0576040517f08c379a0000000000000000000000000000000000000000000000000000000008152600401611ac790612b78565b60405180910390fd5b565b60006001905090565b60008082905080611aea611ad2565b11611b7257600054811015611b715760006004600083815260200190815260200160002054905060007c010000000000000000000000000000000000000000000000000000000082161415611b6f575b6000811415611b65576004600083600190039350838152602001908152602001600020549050611b3a565b8092505050611ba4565b505b5b6040517fdf2d9b4200000000000000000000000000000000000000000000000000000000815260040160405180910390fd5b919050565b60008060006006600085815260200190815260200160002090508092508254915050915091565b600073ffffffffffffffffffffffffffffffffffffffff8316925073ffffffffffffffffffffffffffffffffffffffff821691508382148383141790509392505050565b50505050565b60008060e883901c905060e8611c318686846121a2565b62ffffff16901b9150509392505050565b600073ffffffffffffffffffffffffffffffffffffffff83169250814260a01b178317905092915050565b50505050565b6000600860009054906101000a900473ffffffffffffffffffffffffffffffffffffffff16905081600860006101000a81548173ffffffffffffffffffffffffffffffffffffffff021916908373ffffffffffffffffffffffffffffffffffffffff1602179055508173ffffffffffffffffffffffffffffffffffffffff168173ffffffffffffffffffffffffffffffffffffffff167f8be0079c531659141344cd1fd0a4f28419497f9722a3daafe3b4186f6b6457e060405160405180910390a35050565b6000805490506000821415611d7a576040517fb562e8dd00000000000000000000000000000000000000000000000000000000815260040160405180910390fd5b611d876000848385611c14565b600160406001901b178202600560008573ffffffffffffffffffffffffffffffffffffffff1673ffffffffffffffffffffffffffffffffffffffff16815260200190815260200160002060008282540192505081905550611dfe83611def6000866000611c1a565b611df8856121ab565b17611c42565b6004600083815260200190815260200160002081905550600080838301905073ffffffffffffffffffffffffffffffffffffffff85169150828260007fddf252ad1be2c89b69c2b068fc378daa952ba7f163c4a11628f55a4df523b3ef600080a4600183015b818114611e9f57808360007fddf252ad1be2c89b69c2b068fc378daa952ba7f163c4a11628f55a4df523b3ef600080a4600181019050611e64565b506000821415611edb576040517f2e07630000000000000000000000000000000000000000000000000000000000815260040160405180910390fd5b806000819055505050611ef16000848385611c6d565b505050565b60008373ffffffffffffffffffffffffffffffffffffffff1663150b7a02611f1c611a4c565b8786866040518563ffffffff1660e01b8152600401611f3e9493929190612aaf565b602060405180830381600087803b158015611f5857600080fd5b505af1925050508015611f8957506040513d601f19601f82011682018060405250810190611f869190612829565b60015b612003573d8060008114611fb9576040519150601f19603f3d011682016040523d82523d6000602084013e611fbe565b606091505b50600081511415611ffb576040517fd1a57ed600000000000000000000000000000000000000000000000000000000815260040160405180910390fd5b805181602001fd5b63150b7a0260e01b7bffffffffffffffffffffffffffffffffffffffffffffffffffffffff1916817bffffffffffffffffffffffffffffffffffffffffffffffffffffffff191614915050949350505050565b60606040518060600160405280603681526020016131c660369139905090565b606060006001612085846121bb565b01905060008167ffffffffffffffff8111156120ca577f4e487b7100000000000000000000000000000000000000000000000000000000600052604160045260246000fd5b6040519080825280601f01601f1916602001820160405280156120fc5781602001600182028036833780820191505090505b509050600082602001820190505b60011561218f578080600190039150507f3031323334353637383961626364656600000000000000000000000000000000600a86061a8153600a8581612179577f4e487b7100000000000000000000000000000000000000000000000000000000600052601260045260246000fd5b049450600085141561218a5761218f565b61210a565b819350505050919050565b600033905090565b60009392505050565b60006001821460e11b9050919050565b600080600090507a184f03e93ff9f4daa797ed6e38ed64bf6a1f010000000000000000831061223f577a184f03e93ff9f4daa797ed6e38ed64bf6a1f0100000000000000008381612235577f4e487b7100000000000000000000000000000000000000000000000000000000600052601260045260246000fd5b0492506040810190505b6d04ee2d6d415b85acef810000000083106122a2576d04ee2d6d415b85acef81000000008381612298577f4e487b7100000000000000000000000000000000000000000000000000000000600052601260045260246000fd5b0492506020810190505b662386f26fc1000083106122f757662386f26fc1000083816122ed577f4e487b7100000000000000000000000000000000000000000000000000000000600052601260045260246000fd5b0492506010810190505b6305f5e1008310612346576305f5e100838161233c577f4e487b7100000000000000000000000000000000000000000000000000000000600052601260045260246000fd5b0492506008810190505b6127108310612391576127108381612387577f4e487b7100000000000000000000000000000000000000000000000000000000600052601260045260246000fd5b0492506004810190505b606483106123da57606483816123d0577f4e487b7100000000000000000000000000000000000000000000000000000000600052601260045260246000fd5b0492506002810190505b600a83106123e9576001810190505b80915050919050565b508054600082559060005260206000209081019061241091906124b3565b50565b8280548282559060005260206000209081019282156124a2579160200282015b828111156124a157823573ffffffffffffffffffffffffffffffffffffffff168260006101000a81548173ffffffffffffffffffffffffffffffffffffffff021916908373ffffffffffffffffffffffffffffffffffffffff16021790555091602001919060010190612433565b5b5090506124af91906124b3565b5090565b5b808211156124cc5760008160009055506001016124b4565b5090565b60006124e36124de84612c78565b612c53565b9050828152602081018484840111156124fb57600080fd5b612506848285612e10565b509392505050565b60008135905061251d81613133565b92915050565b60008083601f84011261253557600080fd5b8235905067ffffffffffffffff81111561254e57600080fd5b60208301915083602082028301111561256657600080fd5b9250929050565b60008135905061257c8161314a565b92915050565b60008135905061259181613161565b92915050565b6000815190506125a681613161565b92915050565b600082601f8301126125bd57600080fd5b81356125cd8482602086016124d0565b91505092915050565b6000813590506125e581613178565b92915050565b6000602082840312156125fd57600080fd5b600061260b8482850161250e565b91505092915050565b6000806040838503121561262757600080fd5b60006126358582860161250e565b92505060206126468582860161250e565b9150509250929050565b60008060006060848603121561266557600080fd5b60006126738682870161250e565b93505060206126848682870161250e565b9250506040612695868287016125d6565b9150509250925092565b600080600080608085870312156126b557600080fd5b60006126c38782880161250e565b94505060206126d48782880161250e565b93505060406126e5878288016125d6565b925050606085013567ffffffffffffffff81111561270257600080fd5b61270e878288016125ac565b91505092959194509250565b6000806040838503121561272d57600080fd5b600061273b8582860161250e565b925050602061274c8582860161256d565b9150509250929050565b6000806040838503121561276957600080fd5b60006127778582860161250e565b9250506020612788858286016125d6565b9150509250929050565b600080602083850312156127a557600080fd5b600083013567ffffffffffffffff8111156127bf57600080fd5b6127cb85828601612523565b92509250509250929050565b6000602082840312156127e957600080fd5b60006127f78482850161256d565b91505092915050565b60006020828403121561281257600080fd5b600061282084828501612582565b91505092915050565b60006020828403121561283b57600080fd5b600061284984828501612597565b91505092915050565b60006020828403121561286457600080fd5b6000612872848285016125d6565b91505092915050565b61288481612d9c565b82525050565b61289381612dae565b82525050565b60006128a482612ca9565b6128ae8185612cbf565b93506128be818560208601612e1f565b6128c781612f42565b840191505092915050565b60006128dd82612cb4565b6128e78185612cd0565b93506128f7818560208601612e1f565b61290081612f42565b840191505092915050565b600061291682612cb4565b6129208185612ce1565b9350612930818560208601612e1f565b80840191505092915050565b6000612949602683612cd0565b915061295482612f53565b604082019050919050565b600061296c601783612cd0565b915061297782612fa2565b602082019050919050565b600061298f602083612cd0565b915061299a82612fcb565b602082019050919050565b60006129b2602283612cd0565b91506129bd82612ff4565b604082019050919050565b60006129d5602f83612cd0565b91506129e082613043565b604082019050919050565b60006129f8601183612cd0565b9150612a0382613092565b602082019050919050565b6000612a1b602083612cd0565b9150612a26826130bb565b602082019050919050565b6000612a3e602183612cd0565b9150612a49826130e4565b604082019050919050565b612a5d81612e06565b82525050565b6000612a6f828661290b565b9150612a7b828561290b565b9150612a87828461290b565b9150819050949350505050565b6000602082019050612aa9600083018461287b565b92915050565b6000608082019050612ac4600083018761287b565b612ad1602083018661287b565b612ade6040830185612a54565b8181036060830152612af08184612899565b905095945050505050565b6000602082019050612b10600083018461288a565b92915050565b60006020820190508181036000830152612b3081846128d2565b905092915050565b60006020820190508181036000830152612b518161293c565b9050919050565b60006020820190508181036000830152612b718161295f565b9050919050565b60006020820190508181036000830152612b9181612982565b9050919050565b60006020820190508181036000830152612bb1816129a5565b9050919050565b60006020820190508181036000830152612bd1816129c8565b9050919050565b60006020820190508181036000830152612bf1816129eb565b9050919050565b60006020820190508181036000830152612c1181612a0e565b9050919050565b60006020820190508181036000830152612c3181612a31565b9050919050565b6000602082019050612c4d6000830184612a54565b92915050565b6000612c5d612c6e565b9050612c698282612e84565b919050565b6000604051905090565b600067ffffffffffffffff821115612c9357612c92612f13565b5b612c9c82612f42565b9050602081019050919050565b600081519050919050565b600081519050919050565b600082825260208201905092915050565b600082825260208201905092915050565b600081905092915050565b6000612cf782612e06565b9150612d0283612e06565b9250827fffffffffffffffffffffffffffffffffffffffffffffffffffffffffffffffff03821115612d3757612d36612eb5565b5b828201905092915050565b6000612d4d82612e06565b9150612d5883612e06565b9250817fffffffffffffffffffffffffffffffffffffffffffffffffffffffffffffffff0483118215151615612d9157612d90612eb5565b5b828202905092915050565b6000612da782612de6565b9050919050565b60008115159050919050565b60007fffffffff0000000000000000000000000000000000000000000000000000000082169050919050565b600073ffffffffffffffffffffffffffffffffffffffff82169050919050565b6000819050919050565b82818337600083830152505050565b60005b83811015612e3d578082015181840152602081019050612e22565b83811115612e4c576000848401525b50505050565b60006002820490506001821680612e6a57607f821691505b60208210811415612e7e57612e7d612ee4565b5b50919050565b612e8d82612f42565b810181811067ffffffffffffffff82111715612eac57612eab612f13565b5b80604052505050565b7f4e487b7100000000000000000000000000000000000000000000000000000000600052601160045260246000fd5b7f4e487b7100000000000000000000000000000000000000000000000000000000600052602260045260246000fd5b7f4e487b7100000000000000000000000000000000000000000000000000000000600052604160045260246000fd5b6000601f19601f8301169050919050565b7f4f776e61626c653a206e6577206f776e657220697320746865207a65726f206160008201527f6464726573730000000000000000000000000000000000000000000000000000602082015250565b7f596f7520617265206e6f742077686974656c6973746564000000000000000000600082015250565b7f4f776e61626c653a2063616c6c6572206973206e6f7420746865206f776e6572600082015250565b7f456163682061646472657373206d6179206f6e6c79206d696e742078204e465460008201527f7321000000000000000000000000000000000000000000000000000000000000602082015250565b7f4552433732314d657461646174613a2055524920717565727920666f72206e6f60008201527f6e6578697374656e7420746f6b656e0000000000000000000000000000000000602082015250565b7f4d696e74696e6720697320706175736564000000000000000000000000000000600082015250565b7f43616e6e6f74206d696e74206d6f7265207468616e206d617820737570706c79600082015250565b7f4e6f7420656e6f756768204554482073656e743b20636865636b20707269636560008201527f2100000000000000000000000000000000000000000000000000000000000000602082015250565b61313c81612d9c565b811461314757600080fd5b50565b61315381612dae565b811461315e57600080fd5b50565b61316a81612dba565b811461317557600080fd5b50565b61318181612e06565b811461318c57600080fd5b5056fe697066733a2f2f516d5472724e414b52547a323836535944336137426d6e71476348473172703245333837416341454a693841646d2f697066733a2f2f516d537969757554365163436f4c637931354d776f466e3664676b677a673633656246767278514c6572466b4d652f697066733a2f2f516d5954586173416a77416f36334e4154436637705a364c754c64504a7a74485775736b53475a4b5451657354772f697066733a2f2f516d52567547793564694a576e4e737951614345594b694d6353383454716a79424b7a5a52706e38523261716850a2646970667358221220a0cdc1dcd0e07aa5b5e40d8c29261a55cc856fdb342d9377a45b0172df5309e964736f6c63430008040033",
  "linkReferences": {},
  "deployedLinkReferences": {}
}