{
  "_format": "hh-sol-artifact-1",
  "contractName": "NFT",
  "sourceName": "src/backend/contracts/NFT.sol",
  "abi": [
    {
      "inputs": [
        {
          "internalType": "address",
          "name": "ownerAddress",
          "type": "address"
        },
        {
          "internalType": "address[]",
          "name": "_usersToWhitelist",
          "type": "address[]"
        }
      ],
      "stateMutability": "nonpayable",
      "type": "constructor"
    },
    {
      "inputs": [],
      "name": "ApprovalCallerNotOwnerNorApproved",
      "type": "error"
    },
    {
      "inputs": [],
      "name": "ApprovalQueryForNonexistentToken",
      "type": "error"
    },
    {
      "inputs": [],
      "name": "ApproveToCaller",
      "type": "error"
    },
    {
      "inputs": [],
      "name": "BalanceQueryForZeroAddress",
      "type": "error"
    },
    {
      "inputs": [],
      "name": "MintERC2309QuantityExceedsLimit",
      "type": "error"
    },
    {
      "inputs": [],
      "name": "MintToZeroAddress",
      "type": "error"
    },
    {
      "inputs": [],
      "name": "MintZeroQuantity",
      "type": "error"
    },
    {
      "inputs": [],
      "name": "OwnerQueryForNonexistentToken",
      "type": "error"
    },
    {
      "inputs": [],
      "name": "OwnershipNotInitializedForExtraData",
      "type": "error"
    },
    {
      "inputs": [],
      "name": "TransferCallerNotOwnerNorApproved",
      "type": "error"
    },
    {
      "inputs": [],
      "name": "TransferFromIncorrectOwner",
      "type": "error"
    },
    {
      "inputs": [],
      "name": "TransferToNonERC721ReceiverImplementer",
      "type": "error"
    },
    {
      "inputs": [],
      "name": "TransferToZeroAddress",
      "type": "error"
    },
    {
      "inputs": [],
      "name": "URIQueryForNonexistentToken",
      "type": "error"
    },
    {
      "anonymous": false,
      "inputs": [
        {
          "indexed": true,
          "internalType": "address",
          "name": "owner",
          "type": "address"
        },
        {
          "indexed": true,
          "internalType": "address",
          "name": "approved",
          "type": "address"
        },
        {
          "indexed": true,
          "internalType": "uint256",
          "name": "tokenId",
          "type": "uint256"
        }
      ],
      "name": "Approval",
      "type": "event"
    },
    {
      "anonymous": false,
      "inputs": [
        {
          "indexed": true,
          "internalType": "address",
          "name": "owner",
          "type": "address"
        },
        {
          "indexed": true,
          "internalType": "address",
          "name": "operator",
          "type": "address"
        },
        {
          "indexed": false,
          "internalType": "bool",
          "name": "approved",
          "type": "bool"
        }
      ],
      "name": "ApprovalForAll",
      "type": "event"
    },
    {
      "anonymous": false,
      "inputs": [
        {
          "indexed": true,
          "internalType": "uint256",
          "name": "fromTokenId",
          "type": "uint256"
        },
        {
          "indexed": false,
          "internalType": "uint256",
          "name": "toTokenId",
          "type": "uint256"
        },
        {
          "indexed": true,
          "internalType": "address",
          "name": "from",
          "type": "address"
        },
        {
          "indexed": true,
          "internalType": "address",
          "name": "to",
          "type": "address"
        }
      ],
      "name": "ConsecutiveTransfer",
      "type": "event"
    },
    {
      "anonymous": false,
      "inputs": [
        {
          "indexed": false,
          "internalType": "address",
          "name": "user",
          "type": "address"
        }
      ],
      "name": "MintSuccessful",
      "type": "event"
    },
    {
      "anonymous": false,
      "inputs": [
        {
          "indexed": true,
          "internalType": "address",
          "name": "previousOwner",
          "type": "address"
        },
        {
          "indexed": true,
          "internalType": "address",
          "name": "newOwner",
          "type": "address"
        }
      ],
      "name": "OwnershipTransferred",
      "type": "event"
    },
    {
      "anonymous": false,
      "inputs": [
        {
          "indexed": true,
          "internalType": "address",
          "name": "from",
          "type": "address"
        },
        {
          "indexed": true,
          "internalType": "address",
          "name": "to",
          "type": "address"
        },
        {
          "indexed": true,
          "internalType": "uint256",
          "name": "tokenId",
          "type": "uint256"
        }
      ],
      "name": "Transfer",
      "type": "event"
    },
    {
      "inputs": [],
      "name": "amountMintPerAccount",
      "outputs": [
        {
          "internalType": "uint256",
          "name": "",
          "type": "uint256"
        }
      ],
      "stateMutability": "view",
      "type": "function"
    },
    {
      "inputs": [
        {
          "internalType": "address",
          "name": "to",
          "type": "address"
        },
        {
          "internalType": "uint256",
          "name": "tokenId",
          "type": "uint256"
        }
      ],
      "name": "approve",
      "outputs": [],
      "stateMutability": "nonpayable",
      "type": "function"
    },
    {
      "inputs": [
        {
          "internalType": "address",
          "name": "owner",
          "type": "address"
        }
      ],
      "name": "balanceOf",
      "outputs": [
        {
          "internalType": "uint256",
          "name": "",
          "type": "uint256"
        }
      ],
      "stateMutability": "view",
      "type": "function"
    },
    {
      "inputs": [],
      "name": "baseTokenURI",
      "outputs": [
        {
          "internalType": "string",
          "name": "",
          "type": "string"
        }
      ],
      "stateMutability": "pure",
      "type": "function"
    },
    {
      "inputs": [],
      "name": "contractURI",
      "outputs": [
        {
          "internalType": "string",
          "name": "",
          "type": "string"
        }
      ],
      "stateMutability": "pure",
      "type": "function"
    },
    {
      "inputs": [
        {
          "internalType": "uint256",
          "name": "tokenId",
          "type": "uint256"
        }
      ],
      "name": "getApproved",
      "outputs": [
        {
          "internalType": "address",
          "name": "",
          "type": "address"
        }
      ],
      "stateMutability": "view",
      "type": "function"
    },
    {
      "inputs": [],
      "name": "getPrice",
      "outputs": [
        {
          "internalType": "uint256",
          "name": "",
          "type": "uint256"
        }
      ],
      "stateMutability": "view",
      "type": "function"
    },
    {
      "inputs": [
        {
          "internalType": "address",
          "name": "owner",
          "type": "address"
        },
        {
          "internalType": "address",
          "name": "operator",
          "type": "address"
        }
      ],
      "name": "isApprovedForAll",
      "outputs": [
        {
          "internalType": "bool",
          "name": "",
          "type": "bool"
        }
      ],
      "stateMutability": "view",
      "type": "function"
    },
    {
      "inputs": [],
      "name": "isRevealed",
      "outputs": [
        {
          "internalType": "bool",
          "name": "",
          "type": "bool"
        }
      ],
      "stateMutability": "view",
      "type": "function"
    },
    {
      "inputs": [
        {
          "internalType": "address",
          "name": "_user",
          "type": "address"
        }
      ],
      "name": "isWhitelisted",
      "outputs": [
        {
          "internalType": "bool",
          "name": "",
          "type": "bool"
        }
      ],
      "stateMutability": "view",
      "type": "function"
    },
    {
      "inputs": [],
      "name": "max_supply",
      "outputs": [
        {
          "internalType": "uint256",
          "name": "",
          "type": "uint256"
        }
      ],
      "stateMutability": "view",
      "type": "function"
    },
    {
      "inputs": [
        {
          "internalType": "uint256",
          "name": "quantity",
          "type": "uint256"
        }
      ],
      "name": "mint",
      "outputs": [],
      "stateMutability": "payable",
      "type": "function"
    },
    {
      "inputs": [],
      "name": "name",
      "outputs": [
        {
          "internalType": "string",
          "name": "",
          "type": "string"
        }
      ],
      "stateMutability": "view",
      "type": "function"
    },
    {
      "inputs": [],
      "name": "owner",
      "outputs": [
        {
          "internalType": "address",
          "name": "",
          "type": "address"
        }
      ],
      "stateMutability": "view",
      "type": "function"
    },
    {
      "inputs": [
        {
          "internalType": "uint256",
          "name": "tokenId",
          "type": "uint256"
        }
      ],
      "name": "ownerOf",
      "outputs": [
        {
          "internalType": "address",
          "name": "",
          "type": "address"
        }
      ],
      "stateMutability": "view",
      "type": "function"
    },
    {
      "inputs": [],
      "name": "paused",
      "outputs": [
        {
          "internalType": "bool",
          "name": "",
          "type": "bool"
        }
      ],
      "stateMutability": "view",
      "type": "function"
    },
    {
      "inputs": [],
      "name": "publicSaleEnabled",
      "outputs": [
        {
          "internalType": "bool",
          "name": "",
          "type": "bool"
        }
      ],
      "stateMutability": "view",
      "type": "function"
    },
    {
      "inputs": [],
      "name": "publicSalePrice",
      "outputs": [
        {
          "internalType": "uint256",
          "name": "",
          "type": "uint256"
        }
      ],
      "stateMutability": "view",
      "type": "function"
    },
    {
      "inputs": [],
      "name": "renounceOwnership",
      "outputs": [],
      "stateMutability": "nonpayable",
      "type": "function"
    },
    {
      "inputs": [],
      "name": "reveal",
      "outputs": [],
      "stateMutability": "nonpayable",
      "type": "function"
    },
    {
      "inputs": [
        {
          "internalType": "address",
          "name": "from",
          "type": "address"
        },
        {
          "internalType": "address",
          "name": "to",
          "type": "address"
        },
        {
          "internalType": "uint256",
          "name": "tokenId",
          "type": "uint256"
        }
      ],
      "name": "safeTransferFrom",
      "outputs": [],
      "stateMutability": "nonpayable",
      "type": "function"
    },
    {
      "inputs": [
        {
          "internalType": "address",
          "name": "from",
          "type": "address"
        },
        {
          "internalType": "address",
          "name": "to",
          "type": "address"
        },
        {
          "internalType": "uint256",
          "name": "tokenId",
          "type": "uint256"
        },
        {
          "internalType": "bytes",
          "name": "_data",
          "type": "bytes"
        }
      ],
      "name": "safeTransferFrom",
      "outputs": [],
      "stateMutability": "nonpayable",
      "type": "function"
    },
    {
      "inputs": [
        {
          "internalType": "uint256",
          "name": "_amountMintPerAccount",
          "type": "uint256"
        }
      ],
      "name": "setAmountMintPerAccount",
      "outputs": [],
      "stateMutability": "nonpayable",
      "type": "function"
    },
    {
      "inputs": [
        {
          "internalType": "address",
          "name": "operator",
          "type": "address"
        },
        {
          "internalType": "bool",
          "name": "approved",
          "type": "bool"
        }
      ],
      "name": "setApprovalForAll",
      "outputs": [],
      "stateMutability": "nonpayable",
      "type": "function"
    },
    {
      "inputs": [
        {
          "internalType": "bool",
          "name": "_state",
          "type": "bool"
        }
      ],
      "name": "setPause",
      "outputs": [],
      "stateMutability": "nonpayable",
      "type": "function"
    },
    {
      "inputs": [
        {
          "internalType": "bool",
          "name": "_state",
          "type": "bool"
        }
      ],
      "name": "setPublicSaleEnabled",
      "outputs": [],
      "stateMutability": "nonpayable",
      "type": "function"
    },
    {
      "inputs": [
        {
          "internalType": "uint256",
          "name": "_price",
          "type": "uint256"
        }
      ],
      "name": "setPublicSalePrice",
      "outputs": [],
      "stateMutability": "nonpayable",
      "type": "function"
    },
    {
      "inputs": [
        {
          "internalType": "uint256",
          "name": "_price",
          "type": "uint256"
        }
      ],
      "name": "setWhitelistPrice",
      "outputs": [],
      "stateMutability": "nonpayable",
      "type": "function"
    },
    {
      "inputs": [
        {
          "internalType": "bytes4",
          "name": "interfaceId",
          "type": "bytes4"
        }
      ],
      "name": "supportsInterface",
      "outputs": [
        {
          "internalType": "bool",
          "name": "",
          "type": "bool"
        }
      ],
      "stateMutability": "view",
      "type": "function"
    },
    {
      "inputs": [],
      "name": "symbol",
      "outputs": [
        {
          "internalType": "string",
          "name": "",
          "type": "string"
        }
      ],
      "stateMutability": "view",
      "type": "function"
    },
    {
      "inputs": [
        {
          "internalType": "uint256",
          "name": "_tokenId",
          "type": "uint256"
        }
      ],
      "name": "tokenURI",
      "outputs": [
        {
          "internalType": "string",
          "name": "",
          "type": "string"
        }
      ],
      "stateMutability": "view",
      "type": "function"
    },
    {
      "inputs": [],
      "name": "totalSupply",
      "outputs": [
        {
          "internalType": "uint256",
          "name": "",
          "type": "uint256"
        }
      ],
      "stateMutability": "view",
      "type": "function"
    },
    {
      "inputs": [
        {
          "internalType": "address",
          "name": "from",
          "type": "address"
        },
        {
          "internalType": "address",
          "name": "to",
          "type": "address"
        },
        {
          "internalType": "uint256",
          "name": "tokenId",
          "type": "uint256"
        }
      ],
      "name": "transferFrom",
      "outputs": [],
      "stateMutability": "nonpayable",
      "type": "function"
    },
    {
      "inputs": [
        {
          "internalType": "address",
          "name": "newOwner",
          "type": "address"
        }
      ],
      "name": "transferOwnership",
      "outputs": [],
      "stateMutability": "nonpayable",
      "type": "function"
    },
    {
      "inputs": [],
      "name": "uriSuffix",
      "outputs": [
        {
          "internalType": "string",
          "name": "",
          "type": "string"
        }
      ],
      "stateMutability": "view",
      "type": "function"
    },
    {
      "inputs": [],
      "name": "whitelistPrice",
      "outputs": [
        {
          "internalType": "uint256",
          "name": "",
          "type": "uint256"
        }
      ],
      "stateMutability": "view",
      "type": "function"
    },
    {
      "inputs": [
        {
          "internalType": "address[]",
          "name": "_users",
          "type": "address[]"
        }
      ],
      "name": "whitelistUsers",
      "outputs": [],
      "stateMutability": "nonpayable",
      "type": "function"
    },
    {
      "inputs": [],
      "name": "withdraw",
      "outputs": [],
      "stateMutability": "nonpayable",
      "type": "function"
    }
  ],
  "bytecode": "0x60a0604052613a98608090815250600a60095568118da0b06f1f7c0000600c55680ae145a2a554e60000600d553480156200003957600080fd5b50604051620038ce380380620038ce83398181016040528101906200005f919062000469565b6040518060400160405280600d81526020017f7465656e79536b79534a424273000000000000000000000000000000000000008152506040518060400160405280600781526020017f5453534a424253000000000000000000000000000000000000000000000000008152508160029080519060200190620000e39291906200024e565b508060039080519060200190620000fc9291906200024e565b506200010d6200017760201b60201c565b600081905550505062000135620001296200018060201b60201c565b6200018860201b60201c565b600a6000620001459190620002df565b80600a90805190602001906200015d92919062000302565b506200016f826200018860201b60201c565b505062000644565b60006001905090565b600033905090565b6000600860009054906101000a900473ffffffffffffffffffffffffffffffffffffffff16905081600860006101000a81548173ffffffffffffffffffffffffffffffffffffffff021916908373ffffffffffffffffffffffffffffffffffffffff1602179055508173ffffffffffffffffffffffffffffffffffffffff168173ffffffffffffffffffffffffffffffffffffffff167f8be0079c531659141344cd1fd0a4f28419497f9722a3daafe3b4186f6b6457e060405160405180910390a35050565b8280546200025c906200054f565b90600052602060002090601f016020900481019282620002805760008555620002cc565b82601f106200029b57805160ff1916838001178555620002cc565b82800160010185558215620002cc579182015b82811115620002cb578251825591602001919060010190620002ae565b5b509050620002db919062000391565b5090565b5080546000825590600052602060002090810190620002ff919062000391565b50565b8280548282559060005260206000209081019282156200037e579160200282015b828111156200037d5782518260006101000a81548173ffffffffffffffffffffffffffffffffffffffff021916908373ffffffffffffffffffffffffffffffffffffffff1602179055509160200191906001019062000323565b5b5090506200038d919062000391565b5090565b5b80821115620003ac57600081600090555060010162000392565b5090565b6000620003c7620003c184620004ec565b620004c3565b90508083825260208201905082856020860282011115620003e757600080fd5b60005b858110156200041b578162000400888262000425565b845260208401935060208301925050600181019050620003ea565b5050509392505050565b60008151905062000436816200062a565b92915050565b600082601f8301126200044e57600080fd5b815162000460848260208601620003b0565b91505092915050565b600080604083850312156200047d57600080fd5b60006200048d8582860162000425565b925050602083015167ffffffffffffffff811115620004ab57600080fd5b620004b9858286016200043c565b9150509250929050565b6000620004cf620004e2565b9050620004dd828262000585565b919050565b6000604051905090565b600067ffffffffffffffff8211156200050a5762000509620005ea565b5b602082029050602081019050919050565b600062000528826200052f565b9050919050565b600073ffffffffffffffffffffffffffffffffffffffff82169050919050565b600060028204905060018216806200056857607f821691505b602082108114156200057f576200057e620005bb565b5b50919050565b620005908262000619565b810181811067ffffffffffffffff82111715620005b257620005b1620005ea565b5b80604052505050565b7f4e487b7100000000000000000000000000000000000000000000000000000000600052602260045260246000fd5b7f4e487b7100000000000000000000000000000000000000000000000000000000600052604160045260246000fd5b6000601f19601f8301169050919050565b62000635816200051b565b81146200064157600080fd5b50565b60805161326762000667600039600081816111b9015261131901526132676000f3fe6080604052600436106102255760003560e01c80638720fbef11610123578063a827b5ff116100ab578063e8a3d4851161006f578063e8a3d485146107c2578063e985e9c5146107ed578063edec5f271461082a578063f2fde38b14610853578063fc1a1c361461087c57610225565b8063a827b5ff146106dd578063b88d4fde14610708578063bedb86fb14610731578063c87b56dd1461075a578063d547cfb71461079757610225565b806398d5fdca116100f257806398d5fdca1461062b5780639b6860c814610656578063a0712d6814610681578063a22cb4651461069d578063a475b5dd146106c657610225565b80638720fbef146105815780638a333b50146105aa5780638da5cb5b146105d557806395d89b411461060057610225565b80633ccfd60b116101b15780636352211e116101755780636352211e1461049e57806370a08231146104db578063715018a614610518578063717d57d31461052f578063791a25191461055857610225565b80633ccfd60b146103dd57806342842e0e146103f457806354214f691461041d5780635503a0e8146104485780635c975abb1461047357610225565b806311296660116101f857806311296660146102f857806318160ddd1461032157806323b872dd1461034c5780632ab91bba146103755780633af32abf146103a057610225565b806301ffc9a71461022a57806306fdde0314610267578063081812fc14610292578063095ea7b3146102cf575b600080fd5b34801561023657600080fd5b50610251600480360381019061024c91906127da565b6108a7565b60405161025e9190612ad5565b60405180910390f35b34801561027357600080fd5b5061027c610939565b6040516102899190612af0565b60405180910390f35b34801561029e57600080fd5b506102b960048036038101906102b4919061282c565b6109cb565b6040516102c69190612a6e565b60405180910390f35b3480156102db57600080fd5b506102f660048036038101906102f19190612730565b610a4a565b005b34801561030457600080fd5b5061031f600480360381019061031a919061282c565b610b8e565b005b34801561032d57600080fd5b50610336610ba0565b6040516103439190612c12565b60405180910390f35b34801561035857600080fd5b50610373600480360381019061036e919061262a565b610bb7565b005b34801561038157600080fd5b5061038a610edc565b6040516103979190612ad5565b60405180910390f35b3480156103ac57600080fd5b506103c760048036038101906103c291906125c5565b610eef565b6040516103d49190612ad5565b60405180910390f35b3480156103e957600080fd5b506103f2610fbf565b005b34801561040057600080fd5b5061041b6004803603810190610416919061262a565b611010565b005b34801561042957600080fd5b50610432611030565b60405161043f9190612ad5565b60405180910390f35b34801561045457600080fd5b5061045d611043565b60405161046a9190612af0565b60405180910390f35b34801561047f57600080fd5b5061048861107c565b6040516104959190612ad5565b60405180910390f35b3480156104aa57600080fd5b506104c560048036038101906104c0919061282c565b61108f565b6040516104d29190612a6e565b60405180910390f35b3480156104e757600080fd5b5061050260048036038101906104fd91906125c5565b6110a1565b60405161050f9190612c12565b60405180910390f35b34801561052457600080fd5b5061052d61115a565b005b34801561053b57600080fd5b506105566004803603810190610551919061282c565b61116e565b005b34801561056457600080fd5b5061057f600480360381019061057a919061282c565b611180565b005b34801561058d57600080fd5b506105a860048036038101906105a391906127b1565b611192565b005b3480156105b657600080fd5b506105bf6111b7565b6040516105cc9190612c12565b60405180910390f35b3480156105e157600080fd5b506105ea6111db565b6040516105f79190612a6e565b60405180910390f35b34801561060c57600080fd5b50610615611205565b6040516106229190612af0565b60405180910390f35b34801561063757600080fd5b50610640611297565b60405161064d9190612c12565b60405180910390f35b34801561066257600080fd5b5061066b6112c1565b6040516106789190612c12565b60405180910390f35b61069b6004803603810190610696919061282c565b6112c7565b005b3480156106a957600080fd5b506106c460048036038101906106bf91906126f4565b611500565b005b3480156106d257600080fd5b506106db611678565b005b3480156106e957600080fd5b506106f261169d565b6040516106ff9190612c12565b60405180910390f35b34801561071457600080fd5b5061072f600480360381019061072a9190612679565b6116a3565b005b34801561073d57600080fd5b50610758600480360381019061075391906127b1565b611716565b005b34801561076657600080fd5b50610781600480360381019061077c919061282c565b61173b565b60405161078e9190612af0565b60405180910390f35b3480156107a357600080fd5b506107ac61184e565b6040516107b99190612af0565b60405180910390f35b3480156107ce57600080fd5b506107d761185d565b6040516107e49190612af0565b60405180910390f35b3480156107f957600080fd5b50610814600480360381019061080f91906125ee565b61187d565b6040516108219190612ad5565b60405180910390f35b34801561083657600080fd5b50610851600480360381019061084c919061276c565b611911565b005b34801561085f57600080fd5b5061087a600480360381019061087591906125c5565b61193d565b005b34801561088857600080fd5b506108916119c1565b60405161089e9190612c12565b60405180910390f35b60006301ffc9a760e01b827bffffffffffffffffffffffffffffffffffffffffffffffffffffffff1916148061090257506380ac58cd60e01b827bffffffffffffffffffffffffffffffffffffffffffffffffffffffff1916145b806109325750635b5e139f60e01b827bffffffffffffffffffffffffffffffffffffffffffffffffffffffff1916145b9050919050565b60606002805461094890612e2c565b80601f016020809104026020016040519081016040528092919081815260200182805461097490612e2c565b80156109c15780601f10610996576101008083540402835291602001916109c1565b820191906000526020600020905b8154815290600101906020018083116109a457829003601f168201915b5050505050905090565b60006109d6826119c7565b610a0c576040517fcf4700e400000000000000000000000000000000000000000000000000000000815260040160405180910390fd5b6006600083815260200190815260200160002060000160009054906101000a900473ffffffffffffffffffffffffffffffffffffffff169050919050565b6000610a558261108f565b90508073ffffffffffffffffffffffffffffffffffffffff16610a76611a26565b73ffffffffffffffffffffffffffffffffffffffff1614610ad957610aa281610a9d611a26565b61187d565b610ad8576040517fcfb3b94200000000000000000000000000000000000000000000000000000000815260040160405180910390fd5b5b826006600084815260200190815260200160002060000160006101000a81548173ffffffffffffffffffffffffffffffffffffffff021916908373ffffffffffffffffffffffffffffffffffffffff160217905550818373ffffffffffffffffffffffffffffffffffffffff168273ffffffffffffffffffffffffffffffffffffffff167f8c5be1e5ebec7d5bd14f71427d1e84f3dd0314c0f7b2291e5b200ac8c7c3b92560405160405180910390a4505050565b610b96611a2e565b8060098190555050565b6000610baa611aac565b6001546000540303905090565b6000610bc282611ab5565b90508373ffffffffffffffffffffffffffffffffffffffff168173ffffffffffffffffffffffffffffffffffffffff1614610c29576040517fa114810000000000000000000000000000000000000000000000000000000000815260040160405180910390fd5b600080610c3584611b83565b91509150610c4b8187610c46611a26565b611baa565b610c9757610c6086610c5b611a26565b61187d565b610c96576040517f59c896be00000000000000000000000000000000000000000000000000000000815260040160405180910390fd5b5b600073ffffffffffffffffffffffffffffffffffffffff168573ffffffffffffffffffffffffffffffffffffffff161415610cfe576040517fea553b3400000000000000000000000000000000000000000000000000000000815260040160405180910390fd5b610d0b8686866001611bee565b8015610d1657600082555b600560008773ffffffffffffffffffffffffffffffffffffffff1673ffffffffffffffffffffffffffffffffffffffff168152602001908152602001600020600081546001900391905081905550600560008673ffffffffffffffffffffffffffffffffffffffff1673ffffffffffffffffffffffffffffffffffffffff1681526020019081526020016000206000815460010191905081905550610de485610dc0888887611bf4565b7c020000000000000000000000000000000000000000000000000000000017611c1c565b600460008681526020019081526020016000208190555060007c020000000000000000000000000000000000000000000000000000000084161415610e6c576000600185019050600060046000838152602001908152602001600020541415610e6a576000548114610e69578360046000838152602001908152602001600020819055505b5b505b838573ffffffffffffffffffffffffffffffffffffffff168773ffffffffffffffffffffffffffffffffffffffff167fddf252ad1be2c89b69c2b068fc378daa952ba7f163c4a11628f55a4df523b3ef60405160405180910390a4610ed48686866001611c47565b505050505050565b600b60009054906101000a900460ff1681565b600080600a80549050905060005b81811015610fb3578373ffffffffffffffffffffffffffffffffffffffff16600a8281548110610f56577f4e487b7100000000000000000000000000000000000000000000000000000000600052603260045260246000fd5b9060005260206000200160009054906101000a900473ffffffffffffffffffffffffffffffffffffffff1673ffffffffffffffffffffffffffffffffffffffff161415610fa857600192505050610fba565b806001019050610efd565b5060009150505b919050565b610fc7611a2e565b3373ffffffffffffffffffffffffffffffffffffffff166108fc479081150290604051600060405180830381858888f1935050505015801561100d573d6000803e3d6000fd5b50565b61102b838383604051806020016040528060008152506116a3565b505050565b600b60019054906101000a900460ff1681565b6040518060400160405280600581526020017f2e6a736f6e00000000000000000000000000000000000000000000000000000081525081565b600b60029054906101000a900460ff1681565b600061109a82611ab5565b9050919050565b60008073ffffffffffffffffffffffffffffffffffffffff168273ffffffffffffffffffffffffffffffffffffffff161415611109576040517f8f4eb60400000000000000000000000000000000000000000000000000000000815260040160405180910390fd5b67ffffffffffffffff600560008473ffffffffffffffffffffffffffffffffffffffff1673ffffffffffffffffffffffffffffffffffffffff16815260200190815260200160002054169050919050565b611162611a2e565b61116c6000611c4d565b565b611176611a2e565b80600d8190555050565b611188611a2e565b80600c8190555050565b61119a611a2e565b80600b60006101000a81548160ff02191690831515021790555050565b7f000000000000000000000000000000000000000000000000000000000000000081565b6000600860009054906101000a900473ffffffffffffffffffffffffffffffffffffffff16905090565b60606003805461121490612e2c565b80601f016020809104026020016040519081016040528092919081815260200182805461124090612e2c565b801561128d5780601f106112625761010080835404028352916020019161128d565b820191906000526020600020905b81548152906001019060200180831161127057829003601f168201915b5050505050905090565b6000600b60009054906101000a900460ff16156112b857600c5490506112be565b600d5490505b90565b600c5481565b600b60029054906101000a900460ff1615611317576040517f08c379a000000000000000000000000000000000000000000000000000000000815260040161130e90612bb2565b60405180910390fd5b7f000000000000000000000000000000000000000000000000000000000000000081611341610ba0565b61134b9190612cc6565b1061138b576040517f08c379a000000000000000000000000000000000000000000000000000000000815260040161138290612bd2565b60405180910390fd5b600b60009054906101000a900460ff16806113ab57506113aa33610eef565b5b6113ea576040517f08c379a00000000000000000000000000000000000000000000000000000000081526004016113e190612b32565b60405180910390fd5b600954816113f7336110a1565b6114019190612cc6565b1115611442576040517f08c379a000000000000000000000000000000000000000000000000000000000815260040161143990612b72565b60405180910390fd5b8061144b611297565b6114559190612d1c565b341015611497576040517f08c379a000000000000000000000000000000000000000000000000000000000815260040161148e90612bf2565b60405180910390fd5b6001811180156114a75750600a81105b156114bc576001816114b99190612cc6565b90505b6114c63382611d13565b7ff5535ccd9f40eb4bc73fac8710dbb2effbf3329da83f62b35d9aa88161bb85ca336040516114f59190612a6e565b60405180910390a150565b611508611a26565b73ffffffffffffffffffffffffffffffffffffffff168273ffffffffffffffffffffffffffffffffffffffff16141561156d576040517fb06307db00000000000000000000000000000000000000000000000000000000815260040160405180910390fd5b806007600061157a611a26565b73ffffffffffffffffffffffffffffffffffffffff1673ffffffffffffffffffffffffffffffffffffffff16815260200190815260200160002060008473ffffffffffffffffffffffffffffffffffffffff1673ffffffffffffffffffffffffffffffffffffffff16815260200190815260200160002060006101000a81548160ff0219169083151502179055508173ffffffffffffffffffffffffffffffffffffffff16611627611a26565b73ffffffffffffffffffffffffffffffffffffffff167f17307eab39ab6107e8899845ad3d59bd9653f200f220920489ca2b5937696c318360405161166c9190612ad5565b60405180910390a35050565b611680611a2e565b6001600b60016101000a81548160ff021916908315150217905550565b60095481565b6116ae848484610bb7565b60008373ffffffffffffffffffffffffffffffffffffffff163b14611710576116d984848484611ed0565b61170f576040517fd1a57ed600000000000000000000000000000000000000000000000000000000815260040160405180910390fd5b5b50505050565b61171e611a2e565b80600b60026101000a81548160ff02191690831515021790555050565b6060611746826119c7565b611785576040517f08c379a000000000000000000000000000000000000000000000000000000000815260040161177c90612b92565b60405180910390fd5b600b60019054906101000a900460ff166117b9576040518060800160405280604281526020016131f0604291399050611849565b60006117c3612030565b905060008151116117e35760405180602001604052806000815250611845565b806117ed84612050565b6040518060400160405280600581526020017f2e6a736f6e00000000000000000000000000000000000000000000000000000081525060405160200161183593929190612a3d565b6040516020818303038152906040525b9150505b919050565b6060611858612030565b905090565b60606040518060800160405280604381526020016131ad60439139905090565b6000600760008473ffffffffffffffffffffffffffffffffffffffff1673ffffffffffffffffffffffffffffffffffffffff16815260200190815260200160002060008373ffffffffffffffffffffffffffffffffffffffff1673ffffffffffffffffffffffffffffffffffffffff16815260200190815260200160002060009054906101000a900460ff16905092915050565b611919611a2e565b600a600061192791906123cc565b8181600a91906119389291906123ed565b505050565b611945611a2e565b600073ffffffffffffffffffffffffffffffffffffffff168173ffffffffffffffffffffffffffffffffffffffff1614156119b5576040517f08c379a00000000000000000000000000000000000000000000000000000000081526004016119ac90612b12565b60405180910390fd5b6119be81611c4d565b50565b600d5481565b6000816119d2611aac565b111580156119e1575060005482105b8015611a1f575060007c0100000000000000000000000000000000000000000000000000000000600460008581526020019081526020016000205416145b9050919050565b600033905090565b611a36612174565b73ffffffffffffffffffffffffffffffffffffffff16611a546111db565b73ffffffffffffffffffffffffffffffffffffffff1614611aaa576040517f08c379a0000000000000000000000000000000000000000000000000000000008152600401611aa190612b52565b60405180910390fd5b565b60006001905090565b60008082905080611ac4611aac565b11611b4c57600054811015611b4b5760006004600083815260200190815260200160002054905060007c010000000000000000000000000000000000000000000000000000000082161415611b49575b6000811415611b3f576004600083600190039350838152602001908152602001600020549050611b14565b8092505050611b7e565b505b5b6040517fdf2d9b4200000000000000000000000000000000000000000000000000000000815260040160405180910390fd5b919050565b60008060006006600085815260200190815260200160002090508092508254915050915091565b600073ffffffffffffffffffffffffffffffffffffffff8316925073ffffffffffffffffffffffffffffffffffffffff821691508382148383141790509392505050565b50505050565b60008060e883901c905060e8611c0b86868461217c565b62ffffff16901b9150509392505050565b600073ffffffffffffffffffffffffffffffffffffffff83169250814260a01b178317905092915050565b50505050565b6000600860009054906101000a900473ffffffffffffffffffffffffffffffffffffffff16905081600860006101000a81548173ffffffffffffffffffffffffffffffffffffffff021916908373ffffffffffffffffffffffffffffffffffffffff1602179055508173ffffffffffffffffffffffffffffffffffffffff168173ffffffffffffffffffffffffffffffffffffffff167f8be0079c531659141344cd1fd0a4f28419497f9722a3daafe3b4186f6b6457e060405160405180910390a35050565b6000805490506000821415611d54576040517fb562e8dd00000000000000000000000000000000000000000000000000000000815260040160405180910390fd5b611d616000848385611bee565b600160406001901b178202600560008573ffffffffffffffffffffffffffffffffffffffff1673ffffffffffffffffffffffffffffffffffffffff16815260200190815260200160002060008282540192505081905550611dd883611dc96000866000611bf4565b611dd285612185565b17611c1c565b6004600083815260200190815260200160002081905550600080838301905073ffffffffffffffffffffffffffffffffffffffff85169150828260007fddf252ad1be2c89b69c2b068fc378daa952ba7f163c4a11628f55a4df523b3ef600080a4600183015b818114611e7957808360007fddf252ad1be2c89b69c2b068fc378daa952ba7f163c4a11628f55a4df523b3ef600080a4600181019050611e3e565b506000821415611eb5576040517f2e07630000000000000000000000000000000000000000000000000000000000815260040160405180910390fd5b806000819055505050611ecb6000848385611c47565b505050565b60008373ffffffffffffffffffffffffffffffffffffffff1663150b7a02611ef6611a26565b8786866040518563ffffffff1660e01b8152600401611f189493929190612a89565b602060405180830381600087803b158015611f3257600080fd5b505af1925050508015611f6357506040513d601f19601f82011682018060405250810190611f609190612803565b60015b611fdd573d8060008114611f93576040519150601f19603f3d011682016040523d82523d6000602084013e611f98565b606091505b50600081511415611fd5576040517fd1a57ed600000000000000000000000000000000000000000000000000000000815260040160405180910390fd5b805181602001fd5b63150b7a0260e01b7bffffffffffffffffffffffffffffffffffffffffffffffffffffffff1916817bffffffffffffffffffffffffffffffffffffffffffffffffffffffff191614915050949350505050565b606060405180608001604052806043815260200161316a60439139905090565b60606000600161205f84612195565b01905060008167ffffffffffffffff8111156120a4577f4e487b7100000000000000000000000000000000000000000000000000000000600052604160045260246000fd5b6040519080825280601f01601f1916602001820160405280156120d65781602001600182028036833780820191505090505b509050600082602001820190505b600115612169578080600190039150507f3031323334353637383961626364656600000000000000000000000000000000600a86061a8153600a8581612153577f4e487b7100000000000000000000000000000000000000000000000000000000600052601260045260246000fd5b049450600085141561216457612169565b6120e4565b819350505050919050565b600033905090565b60009392505050565b60006001821460e11b9050919050565b600080600090507a184f03e93ff9f4daa797ed6e38ed64bf6a1f0100000000000000008310612219577a184f03e93ff9f4daa797ed6e38ed64bf6a1f010000000000000000838161220f577f4e487b7100000000000000000000000000000000000000000000000000000000600052601260045260246000fd5b0492506040810190505b6d04ee2d6d415b85acef8100000000831061227c576d04ee2d6d415b85acef81000000008381612272577f4e487b7100000000000000000000000000000000000000000000000000000000600052601260045260246000fd5b0492506020810190505b662386f26fc1000083106122d157662386f26fc1000083816122c7577f4e487b7100000000000000000000000000000000000000000000000000000000600052601260045260246000fd5b0492506010810190505b6305f5e1008310612320576305f5e1008381612316577f4e487b7100000000000000000000000000000000000000000000000000000000600052601260045260246000fd5b0492506008810190505b612710831061236b576127108381612361577f4e487b7100000000000000000000000000000000000000000000000000000000600052601260045260246000fd5b0492506004810190505b606483106123b457606483816123aa577f4e487b7100000000000000000000000000000000000000000000000000000000600052601260045260246000fd5b0492506002810190505b600a83106123c3576001810190505b80915050919050565b50805460008255906000526020600020908101906123ea919061248d565b50565b82805482825590600052602060002090810192821561247c579160200282015b8281111561247b57823573ffffffffffffffffffffffffffffffffffffffff168260006101000a81548173ffffffffffffffffffffffffffffffffffffffff021916908373ffffffffffffffffffffffffffffffffffffffff1602179055509160200191906001019061240d565b5b509050612489919061248d565b5090565b5b808211156124a657600081600090555060010161248e565b5090565b60006124bd6124b884612c52565b612c2d565b9050828152602081018484840111156124d557600080fd5b6124e0848285612dea565b509392505050565b6000813590506124f78161310d565b92915050565b60008083601f84011261250f57600080fd5b8235905067ffffffffffffffff81111561252857600080fd5b60208301915083602082028301111561254057600080fd5b9250929050565b60008135905061255681613124565b92915050565b60008135905061256b8161313b565b92915050565b6000815190506125808161313b565b92915050565b600082601f83011261259757600080fd5b81356125a78482602086016124aa565b91505092915050565b6000813590506125bf81613152565b92915050565b6000602082840312156125d757600080fd5b60006125e5848285016124e8565b91505092915050565b6000806040838503121561260157600080fd5b600061260f858286016124e8565b9250506020612620858286016124e8565b9150509250929050565b60008060006060848603121561263f57600080fd5b600061264d868287016124e8565b935050602061265e868287016124e8565b925050604061266f868287016125b0565b9150509250925092565b6000806000806080858703121561268f57600080fd5b600061269d878288016124e8565b94505060206126ae878288016124e8565b93505060406126bf878288016125b0565b925050606085013567ffffffffffffffff8111156126dc57600080fd5b6126e887828801612586565b91505092959194509250565b6000806040838503121561270757600080fd5b6000612715858286016124e8565b925050602061272685828601612547565b9150509250929050565b6000806040838503121561274357600080fd5b6000612751858286016124e8565b9250506020612762858286016125b0565b9150509250929050565b6000806020838503121561277f57600080fd5b600083013567ffffffffffffffff81111561279957600080fd5b6127a5858286016124fd565b92509250509250929050565b6000602082840312156127c357600080fd5b60006127d184828501612547565b91505092915050565b6000602082840312156127ec57600080fd5b60006127fa8482850161255c565b91505092915050565b60006020828403121561281557600080fd5b600061282384828501612571565b91505092915050565b60006020828403121561283e57600080fd5b600061284c848285016125b0565b91505092915050565b61285e81612d76565b82525050565b61286d81612d88565b82525050565b600061287e82612c83565b6128888185612c99565b9350612898818560208601612df9565b6128a181612f1c565b840191505092915050565b60006128b782612c8e565b6128c18185612caa565b93506128d1818560208601612df9565b6128da81612f1c565b840191505092915050565b60006128f082612c8e565b6128fa8185612cbb565b935061290a818560208601612df9565b80840191505092915050565b6000612923602683612caa565b915061292e82612f2d565b604082019050919050565b6000612946601783612caa565b915061295182612f7c565b602082019050919050565b6000612969602083612caa565b915061297482612fa5565b602082019050919050565b600061298c602283612caa565b915061299782612fce565b604082019050919050565b60006129af602f83612caa565b91506129ba8261301d565b604082019050919050565b60006129d2601183612caa565b91506129dd8261306c565b602082019050919050565b60006129f5602083612caa565b9150612a0082613095565b602082019050919050565b6000612a18602183612caa565b9150612a23826130be565b604082019050919050565b612a3781612de0565b82525050565b6000612a4982866128e5565b9150612a5582856128e5565b9150612a6182846128e5565b9150819050949350505050565b6000602082019050612a836000830184612855565b92915050565b6000608082019050612a9e6000830187612855565b612aab6020830186612855565b612ab86040830185612a2e565b8181036060830152612aca8184612873565b905095945050505050565b6000602082019050612aea6000830184612864565b92915050565b60006020820190508181036000830152612b0a81846128ac565b905092915050565b60006020820190508181036000830152612b2b81612916565b9050919050565b60006020820190508181036000830152612b4b81612939565b9050919050565b60006020820190508181036000830152612b6b8161295c565b9050919050565b60006020820190508181036000830152612b8b8161297f565b9050919050565b60006020820190508181036000830152612bab816129a2565b9050919050565b60006020820190508181036000830152612bcb816129c5565b9050919050565b60006020820190508181036000830152612beb816129e8565b9050919050565b60006020820190508181036000830152612c0b81612a0b565b9050919050565b6000602082019050612c276000830184612a2e565b92915050565b6000612c37612c48565b9050612c438282612e5e565b919050565b6000604051905090565b600067ffffffffffffffff821115612c6d57612c6c612eed565b5b612c7682612f1c565b9050602081019050919050565b600081519050919050565b600081519050919050565b600082825260208201905092915050565b600082825260208201905092915050565b600081905092915050565b6000612cd182612de0565b9150612cdc83612de0565b9250827fffffffffffffffffffffffffffffffffffffffffffffffffffffffffffffffff03821115612d1157612d10612e8f565b5b828201905092915050565b6000612d2782612de0565b9150612d3283612de0565b9250817fffffffffffffffffffffffffffffffffffffffffffffffffffffffffffffffff0483118215151615612d6b57612d6a612e8f565b5b828202905092915050565b6000612d8182612dc0565b9050919050565b60008115159050919050565b60007fffffffff0000000000000000000000000000000000000000000000000000000082169050919050565b600073ffffffffffffffffffffffffffffffffffffffff82169050919050565b6000819050919050565b82818337600083830152505050565b60005b83811015612e17578082015181840152602081019050612dfc565b83811115612e26576000848401525b50505050565b60006002820490506001821680612e4457607f821691505b60208210811415612e5857612e57612ebe565b5b50919050565b612e6782612f1c565b810181811067ffffffffffffffff82111715612e8657612e85612eed565b5b80604052505050565b7f4e487b7100000000000000000000000000000000000000000000000000000000600052601160045260246000fd5b7f4e487b7100000000000000000000000000000000000000000000000000000000600052602260045260246000fd5b7f4e487b7100000000000000000000000000000000000000000000000000000000600052604160045260246000fd5b6000601f19601f8301169050919050565b7f4f776e61626c653a206e6577206f776e657220697320746865207a65726f206160008201527f6464726573730000000000000000000000000000000000000000000000000000602082015250565b7f596f7520617265206e6f742077686974656c6973746564000000000000000000600082015250565b7f4f776e61626c653a2063616c6c6572206973206e6f7420746865206f776e6572600082015250565b7f456163682061646472657373206d6179206f6e6c79206d696e742078204e465460008201527f7321000000000000000000000000000000000000000000000000000000000000602082015250565b7f4552433732314d657461646174613a2055524920717565727920666f72206e6f60008201527f6e6578697374656e7420746f6b656e0000000000000000000000000000000000602082015250565b7f4d696e74696e6720697320706175736564000000000000000000000000000000600082015250565b7f43616e6e6f74206d696e74206d6f7265207468616e206d617820737570706c79600082015250565b7f4e6f7420656e6f756768204554482073656e743b20636865636b20707269636560008201527f2100000000000000000000000000000000000000000000000000000000000000602082015250565b61311681612d76565b811461312157600080fd5b50565b61312d81612d88565b811461313857600080fd5b50565b61314481612d94565b811461314f57600080fd5b50565b61315b81612de0565b811461316657600080fd5b5056fe697066733a2f2f62616679626569686d6c326f6f65357475677372686f737432776c32376a377075376a376f7a32376774623779326a7533726d726772686868776d2f697066733a2f2f62616679626569687871773774757a74733562766c72716735747172706c37733634357933666e676368797a6c6779727563766d6a6836636866342f697066733a2f2f6261667962656964376269697469347a66677a793369366d6d69677a326a696d706a65796d786b616b3473726868737a3473676d6b757577697971a264697066735822122009c927d3e1fa97ebd788304034df6bd1a914f6316c1f30c7f2ab1a69f9892eba64736f6c63430008040033",
  "linkReferences": {},
  "deployedLinkReferences": {}
}