{
  "_format": "hh-sol-artifact-1",
  "contractName": "NFT",
  "sourceName": "src/backend/contracts/NFT.sol",
  "abi": [
    {
      "inputs": [
        {
          "internalType": "address",
          "name": "teamAddress",
          "type": "address"
        },
        {
          "internalType": "address[]",
          "name": "_usersToWhitelist",
          "type": "address[]"
        }
      ],
      "stateMutability": "nonpayable",
      "type": "constructor"
    },
    {
      "inputs": [],
      "name": "ApprovalCallerNotOwnerNorApproved",
      "type": "error"
    },
    {
      "inputs": [],
      "name": "ApprovalQueryForNonexistentToken",
      "type": "error"
    },
    {
      "inputs": [],
      "name": "ApproveToCaller",
      "type": "error"
    },
    {
      "inputs": [],
      "name": "BalanceQueryForZeroAddress",
      "type": "error"
    },
    {
      "inputs": [],
      "name": "MintERC2309QuantityExceedsLimit",
      "type": "error"
    },
    {
      "inputs": [],
      "name": "MintToZeroAddress",
      "type": "error"
    },
    {
      "inputs": [],
      "name": "MintZeroQuantity",
      "type": "error"
    },
    {
      "inputs": [],
      "name": "OwnerQueryForNonexistentToken",
      "type": "error"
    },
    {
      "inputs": [],
      "name": "OwnershipNotInitializedForExtraData",
      "type": "error"
    },
    {
      "inputs": [],
      "name": "TransferCallerNotOwnerNorApproved",
      "type": "error"
    },
    {
      "inputs": [],
      "name": "TransferFromIncorrectOwner",
      "type": "error"
    },
    {
      "inputs": [],
      "name": "TransferToNonERC721ReceiverImplementer",
      "type": "error"
    },
    {
      "inputs": [],
      "name": "TransferToZeroAddress",
      "type": "error"
    },
    {
      "inputs": [],
      "name": "URIQueryForNonexistentToken",
      "type": "error"
    },
    {
      "anonymous": false,
      "inputs": [
        {
          "indexed": true,
          "internalType": "address",
          "name": "owner",
          "type": "address"
        },
        {
          "indexed": true,
          "internalType": "address",
          "name": "approved",
          "type": "address"
        },
        {
          "indexed": true,
          "internalType": "uint256",
          "name": "tokenId",
          "type": "uint256"
        }
      ],
      "name": "Approval",
      "type": "event"
    },
    {
      "anonymous": false,
      "inputs": [
        {
          "indexed": true,
          "internalType": "address",
          "name": "owner",
          "type": "address"
        },
        {
          "indexed": true,
          "internalType": "address",
          "name": "operator",
          "type": "address"
        },
        {
          "indexed": false,
          "internalType": "bool",
          "name": "approved",
          "type": "bool"
        }
      ],
      "name": "ApprovalForAll",
      "type": "event"
    },
    {
      "anonymous": false,
      "inputs": [
        {
          "indexed": true,
          "internalType": "uint256",
          "name": "fromTokenId",
          "type": "uint256"
        },
        {
          "indexed": false,
          "internalType": "uint256",
          "name": "toTokenId",
          "type": "uint256"
        },
        {
          "indexed": true,
          "internalType": "address",
          "name": "from",
          "type": "address"
        },
        {
          "indexed": true,
          "internalType": "address",
          "name": "to",
          "type": "address"
        }
      ],
      "name": "ConsecutiveTransfer",
      "type": "event"
    },
    {
      "anonymous": false,
      "inputs": [
        {
          "indexed": false,
          "internalType": "address",
          "name": "user",
          "type": "address"
        }
      ],
      "name": "MintSuccessful",
      "type": "event"
    },
    {
      "anonymous": false,
      "inputs": [
        {
          "indexed": true,
          "internalType": "address",
          "name": "previousOwner",
          "type": "address"
        },
        {
          "indexed": true,
          "internalType": "address",
          "name": "newOwner",
          "type": "address"
        }
      ],
      "name": "OwnershipTransferred",
      "type": "event"
    },
    {
      "anonymous": false,
      "inputs": [
        {
          "indexed": true,
          "internalType": "address",
          "name": "from",
          "type": "address"
        },
        {
          "indexed": true,
          "internalType": "address",
          "name": "to",
          "type": "address"
        },
        {
          "indexed": true,
          "internalType": "uint256",
          "name": "tokenId",
          "type": "uint256"
        }
      ],
      "name": "Transfer",
      "type": "event"
    },
    {
      "inputs": [],
      "name": "amountMintPerAccount",
      "outputs": [
        {
          "internalType": "uint256",
          "name": "",
          "type": "uint256"
        }
      ],
      "stateMutability": "view",
      "type": "function"
    },
    {
      "inputs": [
        {
          "internalType": "address",
          "name": "to",
          "type": "address"
        },
        {
          "internalType": "uint256",
          "name": "tokenId",
          "type": "uint256"
        }
      ],
      "name": "approve",
      "outputs": [],
      "stateMutability": "nonpayable",
      "type": "function"
    },
    {
      "inputs": [
        {
          "internalType": "address",
          "name": "owner",
          "type": "address"
        }
      ],
      "name": "balanceOf",
      "outputs": [
        {
          "internalType": "uint256",
          "name": "",
          "type": "uint256"
        }
      ],
      "stateMutability": "view",
      "type": "function"
    },
    {
      "inputs": [],
      "name": "baseTokenURI",
      "outputs": [
        {
          "internalType": "string",
          "name": "",
          "type": "string"
        }
      ],
      "stateMutability": "pure",
      "type": "function"
    },
    {
      "inputs": [],
      "name": "contractURI",
      "outputs": [
        {
          "internalType": "string",
          "name": "",
          "type": "string"
        }
      ],
      "stateMutability": "pure",
      "type": "function"
    },
    {
      "inputs": [
        {
          "internalType": "uint256",
          "name": "tokenId",
          "type": "uint256"
        }
      ],
      "name": "getApproved",
      "outputs": [
        {
          "internalType": "address",
          "name": "",
          "type": "address"
        }
      ],
      "stateMutability": "view",
      "type": "function"
    },
    {
      "inputs": [],
      "name": "getPrice",
      "outputs": [
        {
          "internalType": "uint256",
          "name": "",
          "type": "uint256"
        }
      ],
      "stateMutability": "view",
      "type": "function"
    },
    {
      "inputs": [
        {
          "internalType": "address",
          "name": "owner",
          "type": "address"
        },
        {
          "internalType": "address",
          "name": "operator",
          "type": "address"
        }
      ],
      "name": "isApprovedForAll",
      "outputs": [
        {
          "internalType": "bool",
          "name": "",
          "type": "bool"
        }
      ],
      "stateMutability": "view",
      "type": "function"
    },
    {
      "inputs": [
        {
          "internalType": "uint256",
          "name": "_tokenId",
          "type": "uint256"
        }
      ],
      "name": "isUnkownRevealed",
      "outputs": [
        {
          "internalType": "bool",
          "name": "",
          "type": "bool"
        }
      ],
      "stateMutability": "view",
      "type": "function"
    },
    {
      "inputs": [
        {
          "internalType": "address",
          "name": "_user",
          "type": "address"
        }
      ],
      "name": "isWhitelisted",
      "outputs": [
        {
          "internalType": "bool",
          "name": "",
          "type": "bool"
        }
      ],
      "stateMutability": "view",
      "type": "function"
    },
    {
      "inputs": [],
      "name": "max_supply",
      "outputs": [
        {
          "internalType": "uint256",
          "name": "",
          "type": "uint256"
        }
      ],
      "stateMutability": "view",
      "type": "function"
    },
    {
      "inputs": [
        {
          "internalType": "uint256",
          "name": "quantity",
          "type": "uint256"
        }
      ],
      "name": "mint",
      "outputs": [],
      "stateMutability": "payable",
      "type": "function"
    },
    {
      "inputs": [],
      "name": "name",
      "outputs": [
        {
          "internalType": "string",
          "name": "",
          "type": "string"
        }
      ],
      "stateMutability": "view",
      "type": "function"
    },
    {
      "inputs": [],
      "name": "owner",
      "outputs": [
        {
          "internalType": "address",
          "name": "",
          "type": "address"
        }
      ],
      "stateMutability": "view",
      "type": "function"
    },
    {
      "inputs": [
        {
          "internalType": "uint256",
          "name": "tokenId",
          "type": "uint256"
        }
      ],
      "name": "ownerOf",
      "outputs": [
        {
          "internalType": "address",
          "name": "",
          "type": "address"
        }
      ],
      "stateMutability": "view",
      "type": "function"
    },
    {
      "inputs": [],
      "name": "price",
      "outputs": [
        {
          "internalType": "uint256",
          "name": "",
          "type": "uint256"
        }
      ],
      "stateMutability": "view",
      "type": "function"
    },
    {
      "inputs": [],
      "name": "publicSaleEnabled",
      "outputs": [
        {
          "internalType": "bool",
          "name": "",
          "type": "bool"
        }
      ],
      "stateMutability": "view",
      "type": "function"
    },
    {
      "inputs": [],
      "name": "renounceOwnership",
      "outputs": [],
      "stateMutability": "nonpayable",
      "type": "function"
    },
    {
      "inputs": [
        {
          "internalType": "uint256",
          "name": "_tokenId",
          "type": "uint256"
        },
        {
          "internalType": "string",
          "name": "tokenUri",
          "type": "string"
        }
      ],
      "name": "revealUnkown",
      "outputs": [],
      "stateMutability": "nonpayable",
      "type": "function"
    },
    {
      "inputs": [
        {
          "internalType": "address",
          "name": "from",
          "type": "address"
        },
        {
          "internalType": "address",
          "name": "to",
          "type": "address"
        },
        {
          "internalType": "uint256",
          "name": "tokenId",
          "type": "uint256"
        }
      ],
      "name": "safeTransferFrom",
      "outputs": [],
      "stateMutability": "nonpayable",
      "type": "function"
    },
    {
      "inputs": [
        {
          "internalType": "address",
          "name": "from",
          "type": "address"
        },
        {
          "internalType": "address",
          "name": "to",
          "type": "address"
        },
        {
          "internalType": "uint256",
          "name": "tokenId",
          "type": "uint256"
        },
        {
          "internalType": "bytes",
          "name": "_data",
          "type": "bytes"
        }
      ],
      "name": "safeTransferFrom",
      "outputs": [],
      "stateMutability": "nonpayable",
      "type": "function"
    },
    {
      "inputs": [
        {
          "internalType": "uint256",
          "name": "_amountMintPerAccount",
          "type": "uint256"
        }
      ],
      "name": "setAmountMintPerAccount",
      "outputs": [],
      "stateMutability": "nonpayable",
      "type": "function"
    },
    {
      "inputs": [
        {
          "internalType": "address",
          "name": "operator",
          "type": "address"
        },
        {
          "internalType": "bool",
          "name": "approved",
          "type": "bool"
        }
      ],
      "name": "setApprovalForAll",
      "outputs": [],
      "stateMutability": "nonpayable",
      "type": "function"
    },
    {
      "inputs": [
        {
          "internalType": "uint256",
          "name": "_price",
          "type": "uint256"
        }
      ],
      "name": "setPrice",
      "outputs": [],
      "stateMutability": "nonpayable",
      "type": "function"
    },
    {
      "inputs": [
        {
          "internalType": "bool",
          "name": "_state",
          "type": "bool"
        }
      ],
      "name": "setPublicSaleEnabled",
      "outputs": [],
      "stateMutability": "nonpayable",
      "type": "function"
    },
    {
      "inputs": [
        {
          "internalType": "bool",
          "name": "_state",
          "type": "bool"
        }
      ],
      "name": "setWhitelistEnabled",
      "outputs": [],
      "stateMutability": "nonpayable",
      "type": "function"
    },
    {
      "inputs": [
        {
          "internalType": "bytes4",
          "name": "interfaceId",
          "type": "bytes4"
        }
      ],
      "name": "supportsInterface",
      "outputs": [
        {
          "internalType": "bool",
          "name": "",
          "type": "bool"
        }
      ],
      "stateMutability": "view",
      "type": "function"
    },
    {
      "inputs": [],
      "name": "symbol",
      "outputs": [
        {
          "internalType": "string",
          "name": "",
          "type": "string"
        }
      ],
      "stateMutability": "view",
      "type": "function"
    },
    {
      "inputs": [
        {
          "internalType": "uint256",
          "name": "_tokenId",
          "type": "uint256"
        }
      ],
      "name": "tokenURI",
      "outputs": [
        {
          "internalType": "string",
          "name": "",
          "type": "string"
        }
      ],
      "stateMutability": "view",
      "type": "function"
    },
    {
      "inputs": [],
      "name": "totalSupply",
      "outputs": [
        {
          "internalType": "uint256",
          "name": "",
          "type": "uint256"
        }
      ],
      "stateMutability": "view",
      "type": "function"
    },
    {
      "inputs": [
        {
          "internalType": "address",
          "name": "from",
          "type": "address"
        },
        {
          "internalType": "address",
          "name": "to",
          "type": "address"
        },
        {
          "internalType": "uint256",
          "name": "tokenId",
          "type": "uint256"
        }
      ],
      "name": "transferFrom",
      "outputs": [],
      "stateMutability": "nonpayable",
      "type": "function"
    },
    {
      "inputs": [
        {
          "internalType": "address",
          "name": "newOwner",
          "type": "address"
        }
      ],
      "name": "transferOwnership",
      "outputs": [],
      "stateMutability": "nonpayable",
      "type": "function"
    },
    {
      "inputs": [],
      "name": "uriSuffix",
      "outputs": [
        {
          "internalType": "string",
          "name": "",
          "type": "string"
        }
      ],
      "stateMutability": "view",
      "type": "function"
    },
    {
      "inputs": [],
      "name": "whitelistEnabled",
      "outputs": [
        {
          "internalType": "bool",
          "name": "",
          "type": "bool"
        }
      ],
      "stateMutability": "view",
      "type": "function"
    },
    {
      "inputs": [
        {
          "internalType": "address[]",
          "name": "_users",
          "type": "address[]"
        }
      ],
      "name": "whitelistUsers",
      "outputs": [],
      "stateMutability": "nonpayable",
      "type": "function"
    },
    {
      "inputs": [],
      "name": "withdraw",
      "outputs": [],
      "stateMutability": "nonpayable",
      "type": "function"
    }
  ],
  "bytecode": "0x60a06040526126d560809081525060016009556001600a60006101000a81548160ff0219169083151502179055503480156200003a57600080fd5b506040516200419d3803806200419d83398181016040528101906200006091906200078b565b6040518060400160405280601381526020017f47656c61746f76657273652047656e65736973000000000000000000000000008152506040518060400160405280600281526020017f47470000000000000000000000000000000000000000000000000000000000008152508160029080519060200190620000e492919062000570565b508060039080519060200190620000fd92919062000570565b506200010e6200023460201b60201c565b6000819055505050620001366200012a6200023960201b60201c565b6200024160201b60201c565b600b600062000146919062000601565b80600b90805190602001906200015e92919062000624565b50620001738261014d6200030760201b60201c565b60006014905060005b8181101562000219576040518060400160405280601081526020017f4e6f742072657665616c65642079657400000000000000000000000000000000815250600d8260148110620001f6577f4e487b7100000000000000000000000000000000000000000000000000000000600052603260045260246000fd5b0190805190602001906200020c92919062000570565b508060010190506200017c565b506200022b836200024160201b60201c565b50505062000966565b600090565b600033905090565b6000600860009054906101000a900473ffffffffffffffffffffffffffffffffffffffff16905081600860006101000a81548173ffffffffffffffffffffffffffffffffffffffff021916908373ffffffffffffffffffffffffffffffffffffffff1602179055508173ffffffffffffffffffffffffffffffffffffffff168173ffffffffffffffffffffffffffffffffffffffff167f8be0079c531659141344cd1fd0a4f28419497f9722a3daafe3b4186f6b6457e060405160405180910390a35050565b600080549050600082141562000349576040517fb562e8dd00000000000000000000000000000000000000000000000000000000815260040160405180910390fd5b6200035e6000848385620004f060201b60201c565b600160406001901b178202600560008573ffffffffffffffffffffffffffffffffffffffff1673ffffffffffffffffffffffffffffffffffffffff16815260200190815260200160002060008282540192505081905550620003ed83620003cf6000866000620004f660201b60201c565b620003e0856200052660201b60201c565b176200053660201b60201c565b6004600083815260200190815260200160002081905550600080838301905073ffffffffffffffffffffffffffffffffffffffff85169150828260007fddf252ad1be2c89b69c2b068fc378daa952ba7f163c4a11628f55a4df523b3ef600080a4600183015b8181146200049057808360007fddf252ad1be2c89b69c2b068fc378daa952ba7f163c4a11628f55a4df523b3ef600080a460018101905062000453565b506000821415620004cd576040517f2e07630000000000000000000000000000000000000000000000000000000000815260040160405180910390fd5b806000819055505050620004eb60008483856200056160201b60201c565b505050565b50505050565b60008060e883901c905060e8620005158686846200056760201b60201c565b62ffffff16901b9150509392505050565b60006001821460e11b9050919050565b600073ffffffffffffffffffffffffffffffffffffffff83169250814260a01b178317905092915050565b50505050565b60009392505050565b8280546200057e9062000871565b90600052602060002090601f016020900481019282620005a25760008555620005ee565b82601f10620005bd57805160ff1916838001178555620005ee565b82800160010185558215620005ee579182015b82811115620005ed578251825591602001919060010190620005d0565b5b509050620005fd9190620006b3565b5090565b5080546000825590600052602060002090810190620006219190620006b3565b50565b828054828255906000526020600020908101928215620006a0579160200282015b828111156200069f5782518260006101000a81548173ffffffffffffffffffffffffffffffffffffffff021916908373ffffffffffffffffffffffffffffffffffffffff1602179055509160200191906001019062000645565b5b509050620006af9190620006b3565b5090565b5b80821115620006ce576000816000905550600101620006b4565b5090565b6000620006e9620006e3846200080e565b620007e5565b905080838252602082019050828560208602820111156200070957600080fd5b60005b858110156200073d578162000722888262000747565b8452602084019350602083019250506001810190506200070c565b5050509392505050565b60008151905062000758816200094c565b92915050565b600082601f8301126200077057600080fd5b815162000782848260208601620006d2565b91505092915050565b600080604083850312156200079f57600080fd5b6000620007af8582860162000747565b925050602083015167ffffffffffffffff811115620007cd57600080fd5b620007db858286016200075e565b9150509250929050565b6000620007f162000804565b9050620007ff8282620008a7565b919050565b6000604051905090565b600067ffffffffffffffff8211156200082c576200082b6200090c565b5b602082029050602081019050919050565b60006200084a8262000851565b9050919050565b600073ffffffffffffffffffffffffffffffffffffffff82169050919050565b600060028204905060018216806200088a57607f821691505b60208210811415620008a157620008a0620008dd565b5b50919050565b620008b2826200093b565b810181811067ffffffffffffffff82111715620008d457620008d36200090c565b5b80604052505050565b7f4e487b7100000000000000000000000000000000000000000000000000000000600052602260045260246000fd5b7f4e487b7100000000000000000000000000000000000000000000000000000000600052604160045260246000fd5b6000601f19601f8301169050919050565b62000957816200083d565b81146200096357600080fd5b50565b608051613814620009896000396000818161146d01526115e301526138146000f3fe60806040526004361061020f5760003560e01c80638720fbef11610118578063a827b5ff116100a0578063e8a3d4851161006f578063e8a3d4851461077e578063e985e9c5146107a9578063edec5f27146107e6578063f2fde38b1461080f578063fb268517146108385761020f565b8063a827b5ff146106c2578063b88d4fde146106ed578063c87b56dd14610716578063d547cfb7146107535761020f565b806395d89b41116100e757806395d89b41146105fc57806398d5fdca14610627578063a035b1fe14610652578063a0712d681461067d578063a22cb465146106995761020f565b80638720fbef146105545780638a333b501461057d5780638da5cb5b146105a857806391b7f5ed146105d35761020f565b80633af32abf1161019b5780635503a0e81161016a5780635503a0e81461045b5780635cd8f9a1146104865780636352211e146104c357806370a0823114610500578063715018a61461053d5761020f565b80633af32abf146103b35780633ccfd60b146103f057806342842e0e1461040757806351fb012d146104305761020f565b8063095ea7b3116101e2578063095ea7b3146102e2578063112966601461030b57806318160ddd1461033457806323b872dd1461035f5780632ab91bba146103885761020f565b806301ffc9a714610214578063052d9e7e1461025157806306fdde031461027a578063081812fc146102a5575b600080fd5b34801561022057600080fd5b5061023b60048036038101906102369190612ba9565b610861565b6040516102489190612fcc565b60405180910390f35b34801561025d57600080fd5b5061027860048036038101906102739190612b80565b6108f3565b005b34801561028657600080fd5b5061028f61098c565b60405161029c9190612fe7565b60405180910390f35b3480156102b157600080fd5b506102cc60048036038101906102c79190612bfb565b610a1e565b6040516102d99190612f65565b60405180910390f35b3480156102ee57600080fd5b5061030960048036038101906103049190612aff565b610a9d565b005b34801561031757600080fd5b50610332600480360381019061032d9190612bfb565b610be1565b005b34801561034057600080fd5b50610349610c67565b6040516103569190613129565b60405180910390f35b34801561036b57600080fd5b50610386600480360381019061038191906129f9565b610c7e565b005b34801561039457600080fd5b5061039d610fa3565b6040516103aa9190612fcc565b60405180910390f35b3480156103bf57600080fd5b506103da60048036038101906103d59190612994565b610fb6565b6040516103e79190612fcc565b60405180910390f35b3480156103fc57600080fd5b50610405611086565b005b34801561041357600080fd5b5061042e600480360381019061042991906129f9565b61114b565b005b34801561043c57600080fd5b5061044561116b565b6040516104529190612fcc565b60405180910390f35b34801561046757600080fd5b5061047061117e565b60405161047d9190612fe7565b60405180910390f35b34801561049257600080fd5b506104ad60048036038101906104a89190612bfb565b6111b7565b6040516104ba9190612fcc565b60405180910390f35b3480156104cf57600080fd5b506104ea60048036038101906104e59190612bfb565b61127f565b6040516104f79190612f65565b60405180910390f35b34801561050c57600080fd5b5061052760048036038101906105229190612994565b611291565b6040516105349190613129565b60405180910390f35b34801561054957600080fd5b5061055261134a565b005b34801561056057600080fd5b5061057b60048036038101906105769190612b80565b6113d2565b005b34801561058957600080fd5b5061059261146b565b60405161059f9190613129565b60405180910390f35b3480156105b457600080fd5b506105bd61148f565b6040516105ca9190612f65565b60405180910390f35b3480156105df57600080fd5b506105fa60048036038101906105f59190612bfb565b6114b9565b005b34801561060857600080fd5b5061061161153f565b60405161061e9190612fe7565b60405180910390f35b34801561063357600080fd5b5061063c6115d1565b6040516106499190613129565b60405180910390f35b34801561065e57600080fd5b506106676115db565b6040516106749190613129565b60405180910390f35b61069760048036038101906106929190612bfb565b6115e1565b005b3480156106a557600080fd5b506106c060048036038101906106bb9190612ac3565b61178e565b005b3480156106ce57600080fd5b506106d7611906565b6040516106e49190613129565b60405180910390f35b3480156106f957600080fd5b50610714600480360381019061070f9190612a48565b61190c565b005b34801561072257600080fd5b5061073d60048036038101906107389190612bfb565b61197f565b60405161074a9190612fe7565b60405180910390f35b34801561075f57600080fd5b50610768611b43565b6040516107759190612fe7565b60405180910390f35b34801561078a57600080fd5b50610793611b52565b6040516107a09190612fe7565b60405180910390f35b3480156107b557600080fd5b506107d060048036038101906107cb91906129bd565b611b72565b6040516107dd9190612fcc565b60405180910390f35b3480156107f257600080fd5b5061080d60048036038101906108089190612b3b565b611c06565b005b34801561081b57600080fd5b5061083660048036038101906108319190612994565b611ca6565b005b34801561084457600080fd5b5061085f600480360381019061085a9190612c24565b611d9e565b005b60006301ffc9a760e01b827bffffffffffffffffffffffffffffffffffffffffffffffffffffffff191614806108bc57506380ac58cd60e01b827bffffffffffffffffffffffffffffffffffffffffffffffffffffffff1916145b806108ec5750635b5e139f60e01b827bffffffffffffffffffffffffffffffffffffffffffffffffffffffff1916145b9050919050565b6108fb611ef6565b73ffffffffffffffffffffffffffffffffffffffff1661091961148f565b73ffffffffffffffffffffffffffffffffffffffff161461096f576040517f08c379a000000000000000000000000000000000000000000000000000000000815260040161096690613089565b60405180910390fd5b80600a60006101000a81548160ff02191690831515021790555050565b60606002805461099b90613363565b80601f01602080910402602001604051908101604052809291908181526020018280546109c790613363565b8015610a145780601f106109e957610100808354040283529160200191610a14565b820191906000526020600020905b8154815290600101906020018083116109f757829003601f168201915b5050505050905090565b6000610a2982611efe565b610a5f576040517fcf4700e400000000000000000000000000000000000000000000000000000000815260040160405180910390fd5b6006600083815260200190815260200160002060000160009054906101000a900473ffffffffffffffffffffffffffffffffffffffff169050919050565b6000610aa88261127f565b90508073ffffffffffffffffffffffffffffffffffffffff16610ac9611f5d565b73ffffffffffffffffffffffffffffffffffffffff1614610b2c57610af581610af0611f5d565b611b72565b610b2b576040517fcfb3b94200000000000000000000000000000000000000000000000000000000815260040160405180910390fd5b5b826006600084815260200190815260200160002060000160006101000a81548173ffffffffffffffffffffffffffffffffffffffff021916908373ffffffffffffffffffffffffffffffffffffffff160217905550818373ffffffffffffffffffffffffffffffffffffffff168273ffffffffffffffffffffffffffffffffffffffff167f8c5be1e5ebec7d5bd14f71427d1e84f3dd0314c0f7b2291e5b200ac8c7c3b92560405160405180910390a4505050565b610be9611ef6565b73ffffffffffffffffffffffffffffffffffffffff16610c0761148f565b73ffffffffffffffffffffffffffffffffffffffff1614610c5d576040517f08c379a0000000000000000000000000000000000000000000000000000000008152600401610c5490613089565b60405180910390fd5b8060098190555050565b6000610c71611f65565b6001546000540303905090565b6000610c8982611f6a565b90508373ffffffffffffffffffffffffffffffffffffffff168173ffffffffffffffffffffffffffffffffffffffff1614610cf0576040517fa114810000000000000000000000000000000000000000000000000000000000815260040160405180910390fd5b600080610cfc84612038565b91509150610d128187610d0d611f5d565b61205f565b610d5e57610d2786610d22611f5d565b611b72565b610d5d576040517f59c896be00000000000000000000000000000000000000000000000000000000815260040160405180910390fd5b5b600073ffffffffffffffffffffffffffffffffffffffff168573ffffffffffffffffffffffffffffffffffffffff161415610dc5576040517fea553b3400000000000000000000000000000000000000000000000000000000815260040160405180910390fd5b610dd286868660016120a3565b8015610ddd57600082555b600560008773ffffffffffffffffffffffffffffffffffffffff1673ffffffffffffffffffffffffffffffffffffffff168152602001908152602001600020600081546001900391905081905550600560008673ffffffffffffffffffffffffffffffffffffffff1673ffffffffffffffffffffffffffffffffffffffff1681526020019081526020016000206000815460010191905081905550610eab85610e878888876120a9565b7c0200000000000000000000000000000000000000000000000000000000176120d1565b600460008681526020019081526020016000208190555060007c020000000000000000000000000000000000000000000000000000000084161415610f33576000600185019050600060046000838152602001908152602001600020541415610f31576000548114610f30578360046000838152602001908152602001600020819055505b5b505b838573ffffffffffffffffffffffffffffffffffffffff168773ffffffffffffffffffffffffffffffffffffffff167fddf252ad1be2c89b69c2b068fc378daa952ba7f163c4a11628f55a4df523b3ef60405160405180910390a4610f9b86868660016120fc565b505050505050565b600c60009054906101000a900460ff1681565b600080600b80549050905060005b8181101561107a578373ffffffffffffffffffffffffffffffffffffffff16600b828154811061101d577f4e487b7100000000000000000000000000000000000000000000000000000000600052603260045260246000fd5b9060005260206000200160009054906101000a900473ffffffffffffffffffffffffffffffffffffffff1673ffffffffffffffffffffffffffffffffffffffff16141561106f57600192505050611081565b806001019050610fc4565b5060009150505b919050565b61108e611ef6565b73ffffffffffffffffffffffffffffffffffffffff166110ac61148f565b73ffffffffffffffffffffffffffffffffffffffff1614611102576040517f08c379a00000000000000000000000000000000000000000000000000000000081526004016110f990613089565b60405180910390fd5b3373ffffffffffffffffffffffffffffffffffffffff166108fc479081150290604051600060405180830381858888f19350505050158015611148573d6000803e3d6000fd5b50565b6111668383836040518060200160405280600081525061190c565b505050565b600a60009054906101000a900460ff1681565b6040518060400160405280600581526020017f2e6a736f6e00000000000000000000000000000000000000000000000000000081525081565b60006040518060400160405280601081526020017f4e6f742072657665616c656420796574000000000000000000000000000000008152506040516020016111ff9190612f06565b60405160208183030381529060405280519060200120600d836014811061124f577f4e487b7100000000000000000000000000000000000000000000000000000000600052603260045260246000fd5b016040516020016112609190612f4e565b6040516020818303038152906040528051906020012014159050919050565b600061128a82611f6a565b9050919050565b60008073ffffffffffffffffffffffffffffffffffffffff168273ffffffffffffffffffffffffffffffffffffffff1614156112f9576040517f8f4eb60400000000000000000000000000000000000000000000000000000000815260040160405180910390fd5b67ffffffffffffffff600560008473ffffffffffffffffffffffffffffffffffffffff1673ffffffffffffffffffffffffffffffffffffffff16815260200190815260200160002054169050919050565b611352611ef6565b73ffffffffffffffffffffffffffffffffffffffff1661137061148f565b73ffffffffffffffffffffffffffffffffffffffff16146113c6576040517f08c379a00000000000000000000000000000000000000000000000000000000081526004016113bd90613089565b60405180910390fd5b6113d06000612102565b565b6113da611ef6565b73ffffffffffffffffffffffffffffffffffffffff166113f861148f565b73ffffffffffffffffffffffffffffffffffffffff161461144e576040517f08c379a000000000000000000000000000000000000000000000000000000000815260040161144590613089565b60405180910390fd5b80600c60006101000a81548160ff02191690831515021790555050565b7f000000000000000000000000000000000000000000000000000000000000000081565b6000600860009054906101000a900473ffffffffffffffffffffffffffffffffffffffff16905090565b6114c1611ef6565b73ffffffffffffffffffffffffffffffffffffffff166114df61148f565b73ffffffffffffffffffffffffffffffffffffffff1614611535576040517f08c379a000000000000000000000000000000000000000000000000000000000815260040161152c90613089565b60405180910390fd5b8060218190555050565b60606003805461154e90613363565b80601f016020809104026020016040519081016040528092919081815260200182805461157a90613363565b80156115c75780601f1061159c576101008083540402835291602001916115c7565b820191906000526020600020905b8154815290600101906020018083116115aa57829003601f168201915b5050505050905090565b6000602154905090565b60215481565b7f00000000000000000000000000000000000000000000000000000000000000008161160b610c67565b61161591906131f2565b10611655576040517f08c379a000000000000000000000000000000000000000000000000000000000815260040161164c906130e9565b60405180910390fd5b600c60009054906101000a900460ff1680611675575061167433610fb6565b5b6116b4576040517f08c379a00000000000000000000000000000000000000000000000000000000081526004016116ab90613069565b60405180910390fd5b6009546116c033611291565b10611700576040517f08c379a00000000000000000000000000000000000000000000000000000000081526004016116f7906130a9565b60405180910390fd5b6117086115d1565b34101561174a576040517f08c379a000000000000000000000000000000000000000000000000000000000815260040161174190613109565b60405180910390fd5b61175433826121c8565b7ff5535ccd9f40eb4bc73fac8710dbb2effbf3329da83f62b35d9aa88161bb85ca336040516117839190612f65565b60405180910390a150565b611796611f5d565b73ffffffffffffffffffffffffffffffffffffffff168273ffffffffffffffffffffffffffffffffffffffff1614156117fb576040517fb06307db00000000000000000000000000000000000000000000000000000000815260040160405180910390fd5b8060076000611808611f5d565b73ffffffffffffffffffffffffffffffffffffffff1673ffffffffffffffffffffffffffffffffffffffff16815260200190815260200160002060008473ffffffffffffffffffffffffffffffffffffffff1673ffffffffffffffffffffffffffffffffffffffff16815260200190815260200160002060006101000a81548160ff0219169083151502179055508173ffffffffffffffffffffffffffffffffffffffff166118b5611f5d565b73ffffffffffffffffffffffffffffffffffffffff167f17307eab39ab6107e8899845ad3d59bd9653f200f220920489ca2b5937696c31836040516118fa9190612fcc565b60405180910390a35050565b60095481565b611917848484610c7e565b60008373ffffffffffffffffffffffffffffffffffffffff163b146119795761194284848484612385565b611978576040517fd1a57ed600000000000000000000000000000000000000000000000000000000815260040160405180910390fd5b5b50505050565b606061198a82611efe565b6119c9576040517f08c379a00000000000000000000000000000000000000000000000000000000081526004016119c090613049565b60405180910390fd5b6014821080156119de57506119dd826111b7565b5b15611aae57600d8260148110611a1d577f4e487b7100000000000000000000000000000000000000000000000000000000600052603260045260246000fd5b018054611a2990613363565b80601f0160208091040260200160405190810160405280929190818152602001828054611a5590613363565b8015611aa25780601f10611a7757610100808354040283529160200191611aa2565b820191906000526020600020905b815481529060010190602001808311611a8557829003601f168201915b50505050509050611b3e565b6000611ab86124e5565b90506000815111611ad85760405180602001604052806000815250611b3a565b80611ae284612505565b6040518060400160405280600581526020017f2e6a736f6e000000000000000000000000000000000000000000000000000000815250604051602001611b2a93929190612f1d565b6040516020818303038152906040525b9150505b919050565b6060611b4d6124e5565b905090565b606060405180606001604052806036815260200161377360369139905090565b6000600760008473ffffffffffffffffffffffffffffffffffffffff1673ffffffffffffffffffffffffffffffffffffffff16815260200190815260200160002060008373ffffffffffffffffffffffffffffffffffffffff1673ffffffffffffffffffffffffffffffffffffffff16815260200190815260200160002060009054906101000a900460ff16905092915050565b611c0e611ef6565b73ffffffffffffffffffffffffffffffffffffffff16611c2c61148f565b73ffffffffffffffffffffffffffffffffffffffff1614611c82576040517f08c379a0000000000000000000000000000000000000000000000000000000008152600401611c7990613089565b60405180910390fd5b600b6000611c9091906126cb565b8181600b9190611ca19291906126ec565b505050565b611cae611ef6565b73ffffffffffffffffffffffffffffffffffffffff16611ccc61148f565b73ffffffffffffffffffffffffffffffffffffffff1614611d22576040517f08c379a0000000000000000000000000000000000000000000000000000000008152600401611d1990613089565b60405180910390fd5b600073ffffffffffffffffffffffffffffffffffffffff168173ffffffffffffffffffffffffffffffffffffffff161415611d92576040517f08c379a0000000000000000000000000000000000000000000000000000000008152600401611d8990613009565b60405180910390fd5b611d9b81612102565b50565b611da6611ef6565b73ffffffffffffffffffffffffffffffffffffffff16611dc461148f565b73ffffffffffffffffffffffffffffffffffffffff1614611e1a576040517f08c379a0000000000000000000000000000000000000000000000000000000008152600401611e1190613089565b60405180910390fd5b60148310611e5d576040517f08c379a0000000000000000000000000000000000000000000000000000000008152600401611e5490613029565b60405180910390fd5b611e66836111b7565b15611ea6576040517f08c379a0000000000000000000000000000000000000000000000000000000008152600401611e9d906130c9565b60405180910390fd5b8181600d8560148110611ee2577f4e487b7100000000000000000000000000000000000000000000000000000000600052603260045260246000fd5b019190611ef092919061278c565b50505050565b600033905090565b600081611f09611f65565b11158015611f18575060005482105b8015611f56575060007c0100000000000000000000000000000000000000000000000000000000600460008581526020019081526020016000205416145b9050919050565b600033905090565b600090565b60008082905080611f79611f65565b11612001576000548110156120005760006004600083815260200190815260200160002054905060007c010000000000000000000000000000000000000000000000000000000082161415611ffe575b6000811415611ff4576004600083600190039350838152602001908152602001600020549050611fc9565b8092505050612033565b505b5b6040517fdf2d9b4200000000000000000000000000000000000000000000000000000000815260040160405180910390fd5b919050565b60008060006006600085815260200190815260200160002090508092508254915050915091565b600073ffffffffffffffffffffffffffffffffffffffff8316925073ffffffffffffffffffffffffffffffffffffffff821691508382148383141790509392505050565b50505050565b60008060e883901c905060e86120c08686846126b2565b62ffffff16901b9150509392505050565b600073ffffffffffffffffffffffffffffffffffffffff83169250814260a01b178317905092915050565b50505050565b6000600860009054906101000a900473ffffffffffffffffffffffffffffffffffffffff16905081600860006101000a81548173ffffffffffffffffffffffffffffffffffffffff021916908373ffffffffffffffffffffffffffffffffffffffff1602179055508173ffffffffffffffffffffffffffffffffffffffff168173ffffffffffffffffffffffffffffffffffffffff167f8be0079c531659141344cd1fd0a4f28419497f9722a3daafe3b4186f6b6457e060405160405180910390a35050565b6000805490506000821415612209576040517fb562e8dd00000000000000000000000000000000000000000000000000000000815260040160405180910390fd5b61221660008483856120a3565b600160406001901b178202600560008573ffffffffffffffffffffffffffffffffffffffff1673ffffffffffffffffffffffffffffffffffffffff1681526020019081526020016000206000828254019250508190555061228d8361227e60008660006120a9565b612287856126bb565b176120d1565b6004600083815260200190815260200160002081905550600080838301905073ffffffffffffffffffffffffffffffffffffffff85169150828260007fddf252ad1be2c89b69c2b068fc378daa952ba7f163c4a11628f55a4df523b3ef600080a4600183015b81811461232e57808360007fddf252ad1be2c89b69c2b068fc378daa952ba7f163c4a11628f55a4df523b3ef600080a46001810190506122f3565b50600082141561236a576040517f2e07630000000000000000000000000000000000000000000000000000000000815260040160405180910390fd5b80600081905550505061238060008483856120fc565b505050565b60008373ffffffffffffffffffffffffffffffffffffffff1663150b7a026123ab611f5d565b8786866040518563ffffffff1660e01b81526004016123cd9493929190612f80565b602060405180830381600087803b1580156123e757600080fd5b505af192505050801561241857506040513d601f19601f820116820180604052508101906124159190612bd2565b60015b612492573d8060008114612448576040519150601f19603f3d011682016040523d82523d6000602084013e61244d565b606091505b5060008151141561248a576040517fd1a57ed600000000000000000000000000000000000000000000000000000000815260040160405180910390fd5b805181602001fd5b63150b7a0260e01b7bffffffffffffffffffffffffffffffffffffffffffffffffffffffff1916817bffffffffffffffffffffffffffffffffffffffffffffffffffffffff191614915050949350505050565b60606040518060600160405280603681526020016137a960369139905090565b6060600082141561254d576040518060400160405280600181526020017f300000000000000000000000000000000000000000000000000000000000000081525090506126ad565b600082905060005b6000821461257f578080612568906133c6565b915050600a826125789190613248565b9150612555565b60008167ffffffffffffffff8111156125c1577f4e487b7100000000000000000000000000000000000000000000000000000000600052604160045260246000fd5b6040519080825280601f01601f1916602001820160405280156125f35781602001600182028036833780820191505090505b5090505b600085146126a65760018261260c9190613279565b9150600a8561261b919061340f565b603061262791906131f2565b60f81b818381518110612663577f4e487b7100000000000000000000000000000000000000000000000000000000600052603260045260246000fd5b60200101907effffffffffffffffffffffffffffffffffffffffffffffffffffffffffffff1916908160001a905350600a8561269f9190613248565b94506125f7565b8093505050505b919050565b60009392505050565b60006001821460e11b9050919050565b50805460008255906000526020600020908101906126e99190612812565b50565b82805482825590600052602060002090810192821561277b579160200282015b8281111561277a57823573ffffffffffffffffffffffffffffffffffffffff168260006101000a81548173ffffffffffffffffffffffffffffffffffffffff021916908373ffffffffffffffffffffffffffffffffffffffff1602179055509160200191906001019061270c565b5b5090506127889190612812565b5090565b82805461279890613363565b90600052602060002090601f0160209004810192826127ba5760008555612801565b82601f106127d357803560ff1916838001178555612801565b82800160010185558215612801579182015b828111156128005782358255916020019190600101906127e5565b5b50905061280e9190612812565b5090565b5b8082111561282b576000816000905550600101612813565b5090565b600061284261283d84613169565b613144565b90508281526020810184848401111561285a57600080fd5b612865848285613321565b509392505050565b60008135905061287c81613716565b92915050565b60008083601f84011261289457600080fd5b8235905067ffffffffffffffff8111156128ad57600080fd5b6020830191508360208202830111156128c557600080fd5b9250929050565b6000813590506128db8161372d565b92915050565b6000813590506128f081613744565b92915050565b60008151905061290581613744565b92915050565b600082601f83011261291c57600080fd5b813561292c84826020860161282f565b91505092915050565b60008083601f84011261294757600080fd5b8235905067ffffffffffffffff81111561296057600080fd5b60208301915083600182028301111561297857600080fd5b9250929050565b60008135905061298e8161375b565b92915050565b6000602082840312156129a657600080fd5b60006129b48482850161286d565b91505092915050565b600080604083850312156129d057600080fd5b60006129de8582860161286d565b92505060206129ef8582860161286d565b9150509250929050565b600080600060608486031215612a0e57600080fd5b6000612a1c8682870161286d565b9350506020612a2d8682870161286d565b9250506040612a3e8682870161297f565b9150509250925092565b60008060008060808587031215612a5e57600080fd5b6000612a6c8782880161286d565b9450506020612a7d8782880161286d565b9350506040612a8e8782880161297f565b925050606085013567ffffffffffffffff811115612aab57600080fd5b612ab78782880161290b565b91505092959194509250565b60008060408385031215612ad657600080fd5b6000612ae48582860161286d565b9250506020612af5858286016128cc565b9150509250929050565b60008060408385031215612b1257600080fd5b6000612b208582860161286d565b9250506020612b318582860161297f565b9150509250929050565b60008060208385031215612b4e57600080fd5b600083013567ffffffffffffffff811115612b6857600080fd5b612b7485828601612882565b92509250509250929050565b600060208284031215612b9257600080fd5b6000612ba0848285016128cc565b91505092915050565b600060208284031215612bbb57600080fd5b6000612bc9848285016128e1565b91505092915050565b600060208284031215612be457600080fd5b6000612bf2848285016128f6565b91505092915050565b600060208284031215612c0d57600080fd5b6000612c1b8482850161297f565b91505092915050565b600080600060408486031215612c3957600080fd5b6000612c478682870161297f565b935050602084013567ffffffffffffffff811115612c6457600080fd5b612c7086828701612935565b92509250509250925092565b612c85816132ad565b82525050565b612c94816132bf565b82525050565b6000612ca5826131af565b612caf81856131c5565b9350612cbf818560208601613330565b612cc8816134fc565b840191505092915050565b6000612cde826131ba565b612ce881856131d6565b9350612cf8818560208601613330565b612d01816134fc565b840191505092915050565b6000612d17826131ba565b612d2181856131e7565b9350612d31818560208601613330565b80840191505092915050565b60008154612d4a81613363565b612d5481866131e7565b94506001821660008114612d6f5760018114612d8057612db3565b60ff19831686528186019350612db3565b612d898561319a565b60005b83811015612dab57815481890152600182019150602081019050612d8c565b838801955050505b50505092915050565b6000612dc96026836131d6565b9150612dd48261350d565b604082019050919050565b6000612dec6020836131d6565b9150612df78261355c565b602082019050919050565b6000612e0f6030836131d6565b9150612e1a82613585565b604082019050919050565b6000612e326017836131d6565b9150612e3d826135d4565b602082019050919050565b6000612e556020836131d6565b9150612e60826135fd565b602082019050919050565b6000612e786022836131d6565b9150612e8382613626565b604082019050919050565b6000612e9b6020836131d6565b9150612ea682613675565b602082019050919050565b6000612ebe6020836131d6565b9150612ec98261369e565b602082019050919050565b6000612ee16021836131d6565b9150612eec826136c7565b604082019050919050565b612f0081613317565b82525050565b6000612f128284612d0c565b915081905092915050565b6000612f298286612d0c565b9150612f358285612d0c565b9150612f418284612d0c565b9150819050949350505050565b6000612f5a8284612d3d565b915081905092915050565b6000602082019050612f7a6000830184612c7c565b92915050565b6000608082019050612f956000830187612c7c565b612fa26020830186612c7c565b612faf6040830185612ef7565b8181036060830152612fc18184612c9a565b905095945050505050565b6000602082019050612fe16000830184612c8b565b92915050565b600060208201905081810360008301526130018184612cd3565b905092915050565b6000602082019050818103600083015261302281612dbc565b9050919050565b6000602082019050818103600083015261304281612ddf565b9050919050565b6000602082019050818103600083015261306281612e02565b9050919050565b6000602082019050818103600083015261308281612e25565b9050919050565b600060208201905081810360008301526130a281612e48565b9050919050565b600060208201905081810360008301526130c281612e6b565b9050919050565b600060208201905081810360008301526130e281612e8e565b9050919050565b6000602082019050818103600083015261310281612eb1565b9050919050565b6000602082019050818103600083015261312281612ed4565b9050919050565b600060208201905061313e6000830184612ef7565b92915050565b600061314e61315f565b905061315a8282613395565b919050565b6000604051905090565b600067ffffffffffffffff821115613184576131836134cd565b5b61318d826134fc565b9050602081019050919050565b60008190508160005260206000209050919050565b600081519050919050565b600081519050919050565b600082825260208201905092915050565b600082825260208201905092915050565b600081905092915050565b60006131fd82613317565b915061320883613317565b9250827fffffffffffffffffffffffffffffffffffffffffffffffffffffffffffffffff0382111561323d5761323c613440565b5b828201905092915050565b600061325382613317565b915061325e83613317565b92508261326e5761326d61346f565b5b828204905092915050565b600061328482613317565b915061328f83613317565b9250828210156132a2576132a1613440565b5b828203905092915050565b60006132b8826132f7565b9050919050565b60008115159050919050565b60007fffffffff0000000000000000000000000000000000000000000000000000000082169050919050565b600073ffffffffffffffffffffffffffffffffffffffff82169050919050565b6000819050919050565b82818337600083830152505050565b60005b8381101561334e578082015181840152602081019050613333565b8381111561335d576000848401525b50505050565b6000600282049050600182168061337b57607f821691505b6020821081141561338f5761338e61349e565b5b50919050565b61339e826134fc565b810181811067ffffffffffffffff821117156133bd576133bc6134cd565b5b80604052505050565b60006133d182613317565b91507fffffffffffffffffffffffffffffffffffffffffffffffffffffffffffffffff82141561340457613403613440565b5b600182019050919050565b600061341a82613317565b915061342583613317565b9250826134355761343461346f565b5b828206905092915050565b7f4e487b7100000000000000000000000000000000000000000000000000000000600052601160045260246000fd5b7f4e487b7100000000000000000000000000000000000000000000000000000000600052601260045260246000fd5b7f4e487b7100000000000000000000000000000000000000000000000000000000600052602260045260246000fd5b7f4e487b7100000000000000000000000000000000000000000000000000000000600052604160045260246000fd5b6000601f19601f8301169050919050565b7f4f776e61626c653a206e6577206f776e657220697320746865207a65726f206160008201527f6464726573730000000000000000000000000000000000000000000000000000602082015250565b7f746f6b656e4964206d757374206265206265747765656e203020616e64203230600082015250565b7f4552433732314d657461646174613a2055524920717565727920666f72206e6f60008201527f6e6578697374656e7420746f6b656e2000000000000000000000000000000000602082015250565b7f596f7520617265206e6f742077686974656c6973746564000000000000000000600082015250565b7f4f776e61626c653a2063616c6c6572206973206e6f7420746865206f776e6572600082015250565b7f456163682061646472657373206d6179206f6e6c79206d696e742078204e465460008201527f7321000000000000000000000000000000000000000000000000000000000000602082015250565b7f756e6b6f776e2068617320616c7265616479206265656e2072657665616c6564600082015250565b7f43616e6e6f74206d696e74206d6f7265207468616e206d617820737570706c79600082015250565b7f4e6f7420656e6f756768204554482073656e743b20636865636b20707269636560008201527f2100000000000000000000000000000000000000000000000000000000000000602082015250565b61371f816132ad565b811461372a57600080fd5b50565b613736816132bf565b811461374157600080fd5b50565b61374d816132cb565b811461375857600080fd5b50565b61376481613317565b811461376f57600080fd5b5056fe697066733a2f2f516d57426a727834516e77774c577a7531476f73614c7731777633696b764335547137734a556371457a7233536f2f697066733a2f2f516d627839696f364c70706d70766176583345715a593869675178505a68376b6f557a57336d50524c6b4c5169722fa2646970667358221220ad330079976182b1e36758309e1782808b071057415cc7c046a3189a094a93cf64736f6c63430008040033",
  "linkReferences": {},
  "deployedLinkReferences": {}
}