{
  "_format": "hh-sol-artifact-1",
  "contractName": "NFTStaker",
  "sourceName": "src/backend/contracts/NFTStaker.sol",
  "abi": [
    {
      "inputs": [
        {
          "internalType": "address",
          "name": "nftAddress",
          "type": "address"
        }
      ],
      "stateMutability": "nonpayable",
      "type": "constructor"
    },
    {
      "anonymous": false,
      "inputs": [
        {
          "indexed": true,
          "internalType": "address",
          "name": "previousOwner",
          "type": "address"
        },
        {
          "indexed": true,
          "internalType": "address",
          "name": "newOwner",
          "type": "address"
        }
      ],
      "name": "OwnershipTransferred",
      "type": "event"
    },
    {
      "anonymous": false,
      "inputs": [
        {
          "indexed": false,
          "internalType": "uint256",
          "name": "tokenId",
          "type": "uint256"
        },
        {
          "indexed": false,
          "internalType": "uint256",
          "name": "timestamp",
          "type": "uint256"
        }
      ],
      "name": "StakeSuccessful",
      "type": "event"
    },
    {
      "anonymous": false,
      "inputs": [
        {
          "indexed": false,
          "internalType": "uint256",
          "name": "tokenId",
          "type": "uint256"
        },
        {
          "indexed": false,
          "internalType": "uint256",
          "name": "reward",
          "type": "uint256"
        }
      ],
      "name": "UnstakeSuccessful",
      "type": "event"
    },
    {
      "inputs": [
        {
          "internalType": "address",
          "name": "_user",
          "type": "address"
        }
      ],
      "name": "getStakedTokens",
      "outputs": [
        {
          "internalType": "uint256[]",
          "name": "tokenIds",
          "type": "uint256[]"
        }
      ],
      "stateMutability": "view",
      "type": "function"
    },
    {
      "inputs": [],
      "name": "isMissionOngoing",
      "outputs": [
        {
          "internalType": "bool",
          "name": "",
          "type": "bool"
        }
      ],
      "stateMutability": "view",
      "type": "function"
    },
    {
      "inputs": [
        {
          "internalType": "uint256",
          "name": "_tokenId",
          "type": "uint256"
        }
      ],
      "name": "isTokenStaked",
      "outputs": [
        {
          "internalType": "bool",
          "name": "",
          "type": "bool"
        }
      ],
      "stateMutability": "view",
      "type": "function"
    },
    {
      "inputs": [
        {
          "internalType": "address",
          "name": "",
          "type": "address"
        },
        {
          "internalType": "address",
          "name": "",
          "type": "address"
        },
        {
          "internalType": "uint256",
          "name": "",
          "type": "uint256"
        },
        {
          "internalType": "bytes",
          "name": "",
          "type": "bytes"
        }
      ],
      "name": "onERC721Received",
      "outputs": [
        {
          "internalType": "bytes4",
          "name": "",
          "type": "bytes4"
        }
      ],
      "stateMutability": "nonpayable",
      "type": "function"
    },
    {
      "inputs": [],
      "name": "owner",
      "outputs": [
        {
          "internalType": "address",
          "name": "",
          "type": "address"
        }
      ],
      "stateMutability": "view",
      "type": "function"
    },
    {
      "inputs": [],
      "name": "parentNFT",
      "outputs": [
        {
          "internalType": "contract ERC721A",
          "name": "",
          "type": "address"
        }
      ],
      "stateMutability": "view",
      "type": "function"
    },
    {
      "inputs": [],
      "name": "renounceOwnership",
      "outputs": [],
      "stateMutability": "nonpayable",
      "type": "function"
    },
    {
      "inputs": [],
      "name": "rewardRate",
      "outputs": [
        {
          "internalType": "uint256",
          "name": "",
          "type": "uint256"
        }
      ],
      "stateMutability": "view",
      "type": "function"
    },
    {
      "inputs": [],
      "name": "rewardsToken",
      "outputs": [
        {
          "internalType": "contract ERC20",
          "name": "",
          "type": "address"
        }
      ],
      "stateMutability": "view",
      "type": "function"
    },
    {
      "inputs": [
        {
          "internalType": "address",
          "name": "_newOwner",
          "type": "address"
        },
        {
          "internalType": "address",
          "name": "_tokenAddress",
          "type": "address"
        }
      ],
      "name": "setOwnerAndTokenAddress",
      "outputs": [],
      "stateMutability": "nonpayable",
      "type": "function"
    },
    {
      "inputs": [
        {
          "internalType": "uint256",
          "name": "_tokenId",
          "type": "uint256"
        }
      ],
      "name": "stake",
      "outputs": [],
      "stateMutability": "nonpayable",
      "type": "function"
    },
    {
      "inputs": [
        {
          "internalType": "uint256",
          "name": "_duration",
          "type": "uint256"
        }
      ],
      "name": "startMission",
      "outputs": [],
      "stateMutability": "nonpayable",
      "type": "function"
    },
    {
      "inputs": [
        {
          "internalType": "address",
          "name": "newOwner",
          "type": "address"
        }
      ],
      "name": "transferOwnership",
      "outputs": [],
      "stateMutability": "nonpayable",
      "type": "function"
    },
    {
      "inputs": [
        {
          "internalType": "uint256",
          "name": "_tokenId",
          "type": "uint256"
        }
      ],
      "name": "unstake",
      "outputs": [],
      "stateMutability": "nonpayable",
      "type": "function"
    }
  ],
  "bytecode": "0x60806040523480156200001157600080fd5b5060405162002414380380620024148339818101604052810190620000379190620001c0565b60016000819055506200005f62000053620000db60201b60201c565b620000e360201b60201c565b80600260006101000a81548173ffffffffffffffffffffffffffffffffffffffff021916908373ffffffffffffffffffffffffffffffffffffffff160217905550620151806012600a620000b491906200027f565b6005620000c29190620003bc565b620000ce9190620001ec565b60048190555050620004e0565b600033905090565b6000600160009054906101000a900473ffffffffffffffffffffffffffffffffffffffff16905081600160006101000a81548173ffffffffffffffffffffffffffffffffffffffff021916908373ffffffffffffffffffffffffffffffffffffffff1602179055508173ffffffffffffffffffffffffffffffffffffffff168173ffffffffffffffffffffffffffffffffffffffff167f8be0079c531659141344cd1fd0a4f28419497f9722a3daafe3b4186f6b6457e060405160405180910390a35050565b600081519050620001ba81620004c6565b92915050565b600060208284031215620001d357600080fd5b6000620001e384828501620001a9565b91505092915050565b6000620001f98262000451565b9150620002068362000451565b9250826200021957620002186200048a565b5b828204905092915050565b6000808291508390505b600185111562000276578086048111156200024e576200024d6200045b565b5b60018516156200025e5780820291505b80810290506200026e85620004b9565b94506200022e565b94509492505050565b60006200028c8262000451565b9150620002998362000451565b9250620002c87fffffffffffffffffffffffffffffffffffffffffffffffffffffffffffffffff8484620002d0565b905092915050565b600082620002e25760019050620003b5565b81620002f25760009050620003b5565b81600181146200030b576002811462000316576200034c565b6001915050620003b5565b60ff8411156200032b576200032a6200045b565b5b8360020a9150848211156200034557620003446200045b565b5b50620003b5565b5060208310610133831016604e8410600b8410161715620003865782820a90508381111562000380576200037f6200045b565b5b620003b5565b62000395848484600162000224565b92509050818404811115620003af57620003ae6200045b565b5b81810290505b9392505050565b6000620003c98262000451565b9150620003d68362000451565b9250817fffffffffffffffffffffffffffffffffffffffffffffffffffffffffffffffff04831182151516156200041257620004116200045b565b5b828202905092915050565b60006200042a8262000431565b9050919050565b600073ffffffffffffffffffffffffffffffffffffffff82169050919050565b6000819050919050565b7f4e487b7100000000000000000000000000000000000000000000000000000000600052601160045260246000fd5b7f4e487b7100000000000000000000000000000000000000000000000000000000600052601260045260246000fd5b60008160011c9050919050565b620004d1816200041d565b8114620004dd57600080fd5b50565b611f2480620004f06000396000f3fe608060405234801561001057600080fd5b50600436106100ea5760003560e01c80638da5cb5b1161008c578063d1af0c7d11610066578063d1af0c7d14610223578063e6d7d9d114610241578063f0a524241461025f578063f2fde38b1461028f576100ea565b80638da5cb5b146101cb578063a694fc3a146101e9578063b8e33fb214610205576100ea565b806363c28db1116100c857806363c28db114610157578063647fb46c14610187578063715018a6146101a35780637b0a47ee146101ad576100ea565b8063150b7a02146100ef5780632e17de781461011f5780633a7055f91461013b575b600080fd5b610109600480360381019061010491906116a2565b6102ab565b6040516101169190611992565b60405180910390f35b61013960048036038101906101349190611746565b6102bf565b005b61015560048036038101906101509190611746565b6107cc565b005b610171600480360381019061016c919061163d565b61086c565b60405161017e9190611955565b60405180910390f35b6101a1600480360381019061019c9190611666565b610906565b005b6101ab6109d0565b005b6101b5610a58565b6040516101c29190611a63565b60405180910390f35b6101d3610a5e565b6040516101e091906118da565b60405180910390f35b61020360048036038101906101fe9190611746565b610a88565b005b61020d610d47565b60405161021a91906119c8565b60405180910390f35b61022b610d6d565b60405161023891906119ad565b60405180910390f35b610249610d93565b6040516102569190611977565b60405180910390f35b61027960048036038101906102749190611746565b610dc2565b6040516102869190611977565b60405180910390f35b6102a960048036038101906102a4919061163d565b610ece565b005b600063150b7a0260e01b9050949350505050565b60026000541415610305576040517f08c379a00000000000000000000000000000000000000000000000000000000081526004016102fc90611a43565b60405180910390fd5b60026000819055506000600760003373ffffffffffffffffffffffffffffffffffffffff1673ffffffffffffffffffffffffffffffffffffffff168152602001908152602001600020604051806060016040529081600082018054806020026020016040519081016040528092919081815260200182805480156103a857602002820191906000526020600020905b815481526020019060010190808311610394575b505050505081526020016001820180548060200260200160405190810160405280929190818152602001828054801561040057602002820191906000526020600020905b8154815260200190600101908083116103ec575b5050505050815260200160028201805480602002602001604051908101604052809291908181526020016000905b828210156104745783829060005260206000209060020201604051806040016040529081600082015481526020016001820154815250508152602001906001019061042e565b50505050815250509050600080826000015151905060005b818110156104fb5784846000015182815181106104d2577f4e487b7100000000000000000000000000000000000000000000000000000000600052603260045260246000fd5b602002602001015114156104e8578092506104fb565b80806104f390611d27565b91505061048c565b5060008360400151838151811061053b577f4e487b7100000000000000000000000000000000000000000000000000000000600052603260045260246000fd5b60200260200101516020015184604001518481518110610584577f4e487b7100000000000000000000000000000000000000000000000000000000600052603260045260246000fd5b60200260200101516000015161059a9190611b47565b905060008142116105ab57426105ad565b815b90506000856020015185815181106105ee577f4e487b7100000000000000000000000000000000000000000000000000000000600052603260045260246000fd5b6020026020010151826106019190611bf7565b90506000600454826106139190611b9d565b905060011515600360009054906101000a900473ffffffffffffffffffffffffffffffffffffffff1673ffffffffffffffffffffffffffffffffffffffff1663a9059cbb33846040518363ffffffff1660e01b815260040161067692919061192c565b602060405180830381600087803b15801561069057600080fd5b505af11580156106a4573d6000803e3d6000fd5b505050506040513d601f19601f820116820180604052508101906106c8919061171d565b151514156107b557600260009054906101000a900473ffffffffffffffffffffffffffffffffffffffff1673ffffffffffffffffffffffffffffffffffffffff166342842e0e30338b6040518463ffffffff1660e01b815260040161072f939291906118f5565b600060405180830381600087803b15801561074957600080fd5b505af115801561075d573d6000803e3d6000fd5b50505050610777866001876107729190611bf7565b610fc6565b7f97cc56283430ac8692d29c7522a69fa6c2bde7e47d781be6b58b034d80bc282888826040516107a8929190611a7e565b60405180910390a16107ba565b600080fd5b50505050505050600160008190555050565b6107d46114c8565b73ffffffffffffffffffffffffffffffffffffffff166107f2610a5e565b73ffffffffffffffffffffffffffffffffffffffff1614610848576040517f08c379a000000000000000000000000000000000000000000000000000000000815260040161083f90611a03565b60405180910390fd5b42600560000181905550610e10816108609190611b9d565b60056001018190555050565b6060600760008373ffffffffffffffffffffffffffffffffffffffff1673ffffffffffffffffffffffffffffffffffffffff1681526020019081526020016000206000018054806020026020016040519081016040528092919081815260200182805480156108fa57602002820191906000526020600020905b8154815260200190600101908083116108e6575b50505050509050919050565b61090e6114c8565b73ffffffffffffffffffffffffffffffffffffffff1661092c610a5e565b73ffffffffffffffffffffffffffffffffffffffff1614610982576040517f08c379a000000000000000000000000000000000000000000000000000000000815260040161097990611a03565b60405180910390fd5b80600360006101000a81548173ffffffffffffffffffffffffffffffffffffffff021916908373ffffffffffffffffffffffffffffffffffffffff1602179055506109cc826114d0565b5050565b6109d86114c8565b73ffffffffffffffffffffffffffffffffffffffff166109f6610a5e565b73ffffffffffffffffffffffffffffffffffffffff1614610a4c576040517f08c379a0000000000000000000000000000000000000000000000000000000008152600401610a4390611a03565b60405180910390fd5b610a5660006114d0565b565b60045481565b6000600160009054906101000a900473ffffffffffffffffffffffffffffffffffffffff16905090565b60026000541415610ace576040517f08c379a0000000000000000000000000000000000000000000000000000000008152600401610ac590611a43565b60405180910390fd5b6002600081905550610ade610d93565b610b1d576040517f08c379a0000000000000000000000000000000000000000000000000000000008152600401610b1490611a23565b60405180910390fd5b600760003373ffffffffffffffffffffffffffffffffffffffff1673ffffffffffffffffffffffffffffffffffffffff168152602001908152602001600020600001819080600181540180825580915050600190039060005260206000200160009091909190915055600760003373ffffffffffffffffffffffffffffffffffffffff1673ffffffffffffffffffffffffffffffffffffffff168152602001908152602001600020600101429080600181540180825580915050600190039060005260206000200160009091909190915055600760003373ffffffffffffffffffffffffffffffffffffffff1673ffffffffffffffffffffffffffffffffffffffff1681526020019081526020016000206002016005908060018154018082558091505060019003906000526020600020906002020160009091909190915060008201548160000155600182015481600101555050600260009054906101000a900473ffffffffffffffffffffffffffffffffffffffff1673ffffffffffffffffffffffffffffffffffffffff166342842e0e3330846040518463ffffffff1660e01b8152600401610cd1939291906118f5565b600060405180830381600087803b158015610ceb57600080fd5b505af1158015610cff573d6000803e3d6000fd5b505050507fb9a8e9862e9f26d54fc878291fa9354d1629940f2a39517bd62522ec47aec1058142604051610d34929190611a7e565b60405180910390a1600160008190555050565b600260009054906101000a900473ffffffffffffffffffffffffffffffffffffffff1681565b600360009054906101000a900473ffffffffffffffffffffffffffffffffffffffff1681565b600080600560000154118015610dbd575060056001015460056000015442610dbb9190611bf7565b105b905090565b600080600760003373ffffffffffffffffffffffffffffffffffffffff1673ffffffffffffffffffffffffffffffffffffffff16815260200190815260200160002060000180549050905060005b81811015610ec25783600760003373ffffffffffffffffffffffffffffffffffffffff1673ffffffffffffffffffffffffffffffffffffffff1681526020019081526020016000206000018281548110610e93577f4e487b7100000000000000000000000000000000000000000000000000000000600052603260045260246000fd5b90600052602060002001541415610eaf57600192505050610ec9565b8080610eba90611d27565b915050610e10565b5060009150505b919050565b610ed66114c8565b73ffffffffffffffffffffffffffffffffffffffff16610ef4610a5e565b73ffffffffffffffffffffffffffffffffffffffff1614610f4a576040517f08c379a0000000000000000000000000000000000000000000000000000000008152600401610f4190611a03565b60405180910390fd5b600073ffffffffffffffffffffffffffffffffffffffff168173ffffffffffffffffffffffffffffffffffffffff161415610fba576040517f08c379a0000000000000000000000000000000000000000000000000000000008152600401610fb1906119e3565b60405180910390fd5b610fc3816114d0565b50565b600760003373ffffffffffffffffffffffffffffffffffffffff1673ffffffffffffffffffffffffffffffffffffffff1681526020019081526020016000206001018181548110611040577f4e487b7100000000000000000000000000000000000000000000000000000000600052603260045260246000fd5b9060005260206000200154600760003373ffffffffffffffffffffffffffffffffffffffff1673ffffffffffffffffffffffffffffffffffffffff16815260200190815260200160002060010183815481106110c5577f4e487b7100000000000000000000000000000000000000000000000000000000600052603260045260246000fd5b9060005260206000200181905550600760003373ffffffffffffffffffffffffffffffffffffffff1673ffffffffffffffffffffffffffffffffffffffff16815260200190815260200160002060010180548061114b577f4e487b7100000000000000000000000000000000000000000000000000000000600052603160045260246000fd5b60019003818190600052602060002001600090559055600760003373ffffffffffffffffffffffffffffffffffffffff1673ffffffffffffffffffffffffffffffffffffffff16815260200190815260200160002060000181815481106111db577f4e487b7100000000000000000000000000000000000000000000000000000000600052603260045260246000fd5b9060005260206000200154600760003373ffffffffffffffffffffffffffffffffffffffff1673ffffffffffffffffffffffffffffffffffffffff1681526020019081526020016000206000018381548110611260577f4e487b7100000000000000000000000000000000000000000000000000000000600052603260045260246000fd5b9060005260206000200181905550600760003373ffffffffffffffffffffffffffffffffffffffff1673ffffffffffffffffffffffffffffffffffffffff1681526020019081526020016000206000018054806112e6577f4e487b7100000000000000000000000000000000000000000000000000000000600052603160045260246000fd5b60019003818190600052602060002001600090559055600760003373ffffffffffffffffffffffffffffffffffffffff1673ffffffffffffffffffffffffffffffffffffffff1681526020019081526020016000206002018181548110611376577f4e487b7100000000000000000000000000000000000000000000000000000000600052603260045260246000fd5b9060005260206000209060020201600760003373ffffffffffffffffffffffffffffffffffffffff1673ffffffffffffffffffffffffffffffffffffffff16815260200190815260200160002060020183815481106113fe577f4e487b7100000000000000000000000000000000000000000000000000000000600052603260045260246000fd5b90600052602060002090600202016000820154816000015560018201548160010155905050600760003373ffffffffffffffffffffffffffffffffffffffff1673ffffffffffffffffffffffffffffffffffffffff16815260200190815260200160002060020180548061149b577f4e487b7100000000000000000000000000000000000000000000000000000000600052603160045260246000fd5b60019003818190600052602060002090600202016000808201600090556001820160009055505090555050565b600033905090565b6000600160009054906101000a900473ffffffffffffffffffffffffffffffffffffffff16905081600160006101000a81548173ffffffffffffffffffffffffffffffffffffffff021916908373ffffffffffffffffffffffffffffffffffffffff1602179055508173ffffffffffffffffffffffffffffffffffffffff168173ffffffffffffffffffffffffffffffffffffffff167f8be0079c531659141344cd1fd0a4f28419497f9722a3daafe3b4186f6b6457e060405160405180910390a35050565b60006115a96115a484611acc565b611aa7565b9050828152602081018484840111156115c157600080fd5b6115cc848285611ce7565b509392505050565b6000813590506115e381611ea9565b92915050565b6000815190506115f881611ec0565b92915050565b600082601f83011261160f57600080fd5b813561161f848260208601611596565b91505092915050565b60008135905061163781611ed7565b92915050565b60006020828403121561164f57600080fd5b600061165d848285016115d4565b91505092915050565b6000806040838503121561167957600080fd5b6000611687858286016115d4565b9250506020611698858286016115d4565b9150509250929050565b600080600080608085870312156116b857600080fd5b60006116c6878288016115d4565b94505060206116d7878288016115d4565b93505060406116e887828801611628565b925050606085013567ffffffffffffffff81111561170557600080fd5b611711878288016115fe565b91505092959194509250565b60006020828403121561172f57600080fd5b600061173d848285016115e9565b91505092915050565b60006020828403121561175857600080fd5b600061176684828501611628565b91505092915050565b600061177b83836118bc565b60208301905092915050565b61179081611c2b565b82525050565b60006117a182611b0d565b6117ab8185611b25565b93506117b683611afd565b8060005b838110156117e75781516117ce888261176f565b97506117d983611b18565b9250506001810190506117ba565b5085935050505092915050565b6117fd81611c3d565b82525050565b61180c81611c49565b82525050565b61181b81611c9f565b82525050565b61182a81611cc3565b82525050565b600061183d602683611b36565b915061184882611ddf565b604082019050919050565b6000611860602083611b36565b915061186b82611e2e565b602082019050919050565b6000611883601c83611b36565b915061188e82611e57565b602082019050919050565b60006118a6601f83611b36565b91506118b182611e80565b602082019050919050565b6118c581611c95565b82525050565b6118d481611c95565b82525050565b60006020820190506118ef6000830184611787565b92915050565b600060608201905061190a6000830186611787565b6119176020830185611787565b61192460408301846118cb565b949350505050565b60006040820190506119416000830185611787565b61194e60208301846118cb565b9392505050565b6000602082019050818103600083015261196f8184611796565b905092915050565b600060208201905061198c60008301846117f4565b92915050565b60006020820190506119a76000830184611803565b92915050565b60006020820190506119c26000830184611812565b92915050565b60006020820190506119dd6000830184611821565b92915050565b600060208201905081810360008301526119fc81611830565b9050919050565b60006020820190508181036000830152611a1c81611853565b9050919050565b60006020820190508181036000830152611a3c81611876565b9050919050565b60006020820190508181036000830152611a5c81611899565b9050919050565b6000602082019050611a7860008301846118cb565b92915050565b6000604082019050611a9360008301856118cb565b611aa060208301846118cb565b9392505050565b6000611ab1611ac2565b9050611abd8282611cf6565b919050565b6000604051905090565b600067ffffffffffffffff821115611ae757611ae6611d9f565b5b611af082611dce565b9050602081019050919050565b6000819050602082019050919050565b600081519050919050565b6000602082019050919050565b600082825260208201905092915050565b600082825260208201905092915050565b6000611b5282611c95565b9150611b5d83611c95565b9250827fffffffffffffffffffffffffffffffffffffffffffffffffffffffffffffffff03821115611b9257611b91611d70565b5b828201905092915050565b6000611ba882611c95565b9150611bb383611c95565b9250817fffffffffffffffffffffffffffffffffffffffffffffffffffffffffffffffff0483118215151615611bec57611beb611d70565b5b828202905092915050565b6000611c0282611c95565b9150611c0d83611c95565b925082821015611c2057611c1f611d70565b5b828203905092915050565b6000611c3682611c75565b9050919050565b60008115159050919050565b60007fffffffff0000000000000000000000000000000000000000000000000000000082169050919050565b600073ffffffffffffffffffffffffffffffffffffffff82169050919050565b6000819050919050565b6000611caa82611cb1565b9050919050565b6000611cbc82611c75565b9050919050565b6000611cce82611cd5565b9050919050565b6000611ce082611c75565b9050919050565b82818337600083830152505050565b611cff82611dce565b810181811067ffffffffffffffff82111715611d1e57611d1d611d9f565b5b80604052505050565b6000611d3282611c95565b91507fffffffffffffffffffffffffffffffffffffffffffffffffffffffffffffffff821415611d6557611d64611d70565b5b600182019050919050565b7f4e487b7100000000000000000000000000000000000000000000000000000000600052601160045260246000fd5b7f4e487b7100000000000000000000000000000000000000000000000000000000600052604160045260246000fd5b6000601f19601f8301169050919050565b7f4f776e61626c653a206e6577206f776e657220697320746865207a65726f206160008201527f6464726573730000000000000000000000000000000000000000000000000000602082015250565b7f4f776e61626c653a2063616c6c6572206973206e6f7420746865206f776e6572600082015250565b7f5468657265206973206e6f206f6e676f696e67206d697373696f6e2100000000600082015250565b7f5265656e7472616e637947756172643a207265656e7472616e742063616c6c00600082015250565b611eb281611c2b565b8114611ebd57600080fd5b50565b611ec981611c3d565b8114611ed457600080fd5b50565b611ee081611c95565b8114611eeb57600080fd5b5056fea2646970667358221220f895f8e91b61ac9d78d545aa985bc153dae5cf13ae07c5141e8ef17435d672c864736f6c63430008040033",
  "linkReferences": {},
  "deployedLinkReferences": {}
}